{
  "_format": "hh-sol-artifact-1",
  "contractName": "Market",
  "sourceName": "contracts/Market.sol",
  "abi": [
    {
      "inputs": [],
      "stateMutability": "payable",
      "type": "constructor"
    },
    {
      "anonymous": false,
      "inputs": [
        {
          "indexed": true,
          "internalType": "address",
          "name": "_by",
          "type": "address"
        },
        {
          "indexed": true,
          "internalType": "bytes32",
          "name": "_oldHash",
          "type": "bytes32"
        },
        {
          "indexed": true,
          "internalType": "bytes32",
          "name": "_newHash",
          "type": "bytes32"
        }
      ],
      "name": "DealCanceledByBuyer",
      "type": "event"
    },
    {
      "anonymous": false,
      "inputs": [
        {
          "indexed": true,
          "internalType": "address",
          "name": "_by",
          "type": "address"
        },
        {
          "indexed": true,
          "internalType": "bytes32",
          "name": "_hash",
          "type": "bytes32"
        }
      ],
      "name": "DealConfirmedByBuyer",
      "type": "event"
    },
    {
      "anonymous": false,
      "inputs": [
        {
          "indexed": true,
          "internalType": "address",
          "name": "_by",
          "type": "address"
        },
        {
          "indexed": true,
          "internalType": "bytes32",
          "name": "_hash",
          "type": "bytes32"
        }
      ],
      "name": "DealConfirmedBySeller",
      "type": "event"
    },
    {
      "anonymous": false,
      "inputs": [
        {
          "indexed": true,
          "internalType": "address",
          "name": "_by",
          "type": "address"
        },
        {
          "indexed": true,
          "internalType": "bytes32",
          "name": "_hash",
          "type": "bytes32"
        }
      ],
      "name": "ItemAdded",
      "type": "event"
    },
    {
      "anonymous": false,
      "inputs": [
        {
          "indexed": true,
          "internalType": "address",
          "name": "_by",
          "type": "address"
        },
        {
          "indexed": true,
          "internalType": "bytes32",
          "name": "_oldHash",
          "type": "bytes32"
        },
        {
          "indexed": true,
          "internalType": "bytes32",
          "name": "_newHash",
          "type": "bytes32"
        }
      ],
      "name": "ItemBooked",
      "type": "event"
    },
    {
      "anonymous": false,
      "inputs": [
        {
          "indexed": true,
          "internalType": "address",
          "name": "_by",
          "type": "address"
        },
        {
          "indexed": false,
          "internalType": "uint256",
          "name": "_amountOfMNT",
          "type": "uint256"
        },
        {
          "indexed": false,
          "internalType": "uint256",
          "name": "_amountOfETH",
          "type": "uint256"
        }
      ],
      "name": "MNTBought",
      "type": "event"
    },
    {
      "anonymous": false,
      "inputs": [
        {
          "indexed": true,
          "internalType": "address",
          "name": "_to",
          "type": "address"
        },
        {
          "indexed": true,
          "internalType": "bytes32",
          "name": "_hash",
          "type": "bytes32"
        }
      ],
      "name": "MNTPaidForDeal",
      "type": "event"
    },
    {
      "anonymous": false,
      "inputs": [
        {
          "indexed": true,
          "internalType": "address",
          "name": "_by",
          "type": "address"
        },
        {
          "indexed": false,
          "internalType": "uint256",
          "name": "_amountOfMNT",
          "type": "uint256"
        },
        {
          "indexed": false,
          "internalType": "uint256",
          "name": "_amountOfETH",
          "type": "uint256"
        }
      ],
      "name": "MNTSold",
      "type": "event"
    },
    {
      "inputs": [
        {
          "internalType": "uint256",
          "name": "amount",
          "type": "uint256"
        }
      ],
      "name": "ETH2MNT",
      "outputs": [
        {
          "internalType": "uint256",
          "name": "",
          "type": "uint256"
        }
      ],
      "stateMutability": "view",
      "type": "function"
    },
    {
      "inputs": [],
      "name": "MNT",
      "outputs": [
        {
          "internalType": "contract IERC20",
          "name": "",
          "type": "address"
        }
      ],
      "stateMutability": "view",
      "type": "function"
    },
    {
      "inputs": [
        {
          "internalType": "uint256",
          "name": "amount",
          "type": "uint256"
        }
      ],
      "name": "MNT2ETH",
      "outputs": [
        {
          "internalType": "uint256",
          "name": "",
          "type": "uint256"
        }
      ],
      "stateMutability": "view",
      "type": "function"
    },
    {
      "inputs": [],
      "name": "MNTPrice",
      "outputs": [
        {
          "internalType": "uint256",
          "name": "",
          "type": "uint256"
        }
      ],
      "stateMutability": "view",
      "type": "function"
    },
    {
      "inputs": [
        {
          "internalType": "string",
          "name": "name_",
          "type": "string"
        },
        {
          "internalType": "string",
          "name": "description_",
          "type": "string"
        },
        {
          "internalType": "uint256",
          "name": "price_",
          "type": "uint256"
        }
      ],
      "name": "addItem",
      "outputs": [],
      "stateMutability": "nonpayable",
      "type": "function"
    },
    {
      "inputs": [
        {
          "internalType": "address",
          "name": "",
          "type": "address"
        }
      ],
      "name": "amountOfSwappedEther",
      "outputs": [
        {
          "internalType": "uint256",
          "name": "",
          "type": "uint256"
        }
      ],
      "stateMutability": "view",
      "type": "function"
    },
    {
      "inputs": [
        {
          "internalType": "bytes32",
          "name": "hash",
          "type": "bytes32"
        }
      ],
      "name": "buyItem",
      "outputs": [],
      "stateMutability": "nonpayable",
      "type": "function"
    },
    {
      "inputs": [],
      "name": "buyMNT",
      "outputs": [],
      "stateMutability": "payable",
      "type": "function"
    },
    {
      "inputs": [
        {
          "internalType": "bytes32",
          "name": "hash",
          "type": "bytes32"
        }
      ],
      "name": "cancelBuying",
      "outputs": [],
      "stateMutability": "nonpayable",
      "type": "function"
    },
    {
      "inputs": [
        {
          "internalType": "uint256",
          "name": "amount",
          "type": "uint256"
        }
      ],
      "name": "claimContractFee",
      "outputs": [],
      "stateMutability": "payable",
      "type": "function"
    },
    {
      "inputs": [
        {
          "internalType": "bytes32",
          "name": "hash",
          "type": "bytes32"
        }
      ],
      "name": "claimFrozenMNT",
      "outputs": [],
      "stateMutability": "nonpayable",
      "type": "function"
    },
    {
      "inputs": [
        {
          "internalType": "bytes32",
          "name": "hash",
          "type": "bytes32"
        }
      ],
      "name": "confirmBuying",
      "outputs": [],
      "stateMutability": "nonpayable",
      "type": "function"
    },
    {
      "inputs": [
        {
          "internalType": "bytes32",
          "name": "hash",
          "type": "bytes32"
        }
      ],
      "name": "confirmSelling",
      "outputs": [],
      "stateMutability": "nonpayable",
      "type": "function"
    },
    {
      "inputs": [],
      "name": "contractFee",
      "outputs": [
        {
          "internalType": "uint256",
          "name": "",
          "type": "uint256"
        }
      ],
      "stateMutability": "view",
      "type": "function"
    },
    {
      "inputs": [],
      "name": "contractFeeSum",
      "outputs": [
        {
          "internalType": "uint256",
          "name": "",
          "type": "uint256"
        }
      ],
      "stateMutability": "view",
      "type": "function"
    },
    {
      "inputs": [],
      "name": "getContractFee",
      "outputs": [
        {
          "internalType": "uint256",
          "name": "",
          "type": "uint256"
        }
      ],
      "stateMutability": "view",
      "type": "function"
    },
    {
      "inputs": [
        {
          "internalType": "bytes32",
          "name": "hash",
          "type": "bytes32"
        }
      ],
      "name": "getItemByHash",
      "outputs": [
        {
          "components": [
            {
              "internalType": "string",
              "name": "name",
              "type": "string"
            },
            {
              "internalType": "string",
              "name": "description",
              "type": "string"
            },
            {
              "internalType": "uint256",
              "name": "price",
              "type": "uint256"
            },
            {
              "internalType": "uint256",
              "name": "timeCreated",
              "type": "uint256"
            },
            {
              "internalType": "uint256",
              "name": "timeSold",
              "type": "uint256"
            },
            {
              "internalType": "address",
              "name": "seller",
              "type": "address"
            },
            {
              "internalType": "address",
              "name": "buyer",
              "type": "address"
            }
          ],
          "internalType": "struct Market.Item",
          "name": "",
          "type": "tuple"
        }
      ],
      "stateMutability": "view",
      "type": "function"
    },
    {
      "inputs": [],
      "name": "getMNTPrice",
      "outputs": [
        {
          "internalType": "uint256",
          "name": "",
          "type": "uint256"
        }
      ],
      "stateMutability": "view",
      "type": "function"
    },
    {
      "inputs": [
        {
          "internalType": "bytes32",
          "name": "",
          "type": "bytes32"
        }
      ],
      "name": "hash2Item",
      "outputs": [
        {
          "internalType": "string",
          "name": "name",
          "type": "string"
        },
        {
          "internalType": "string",
          "name": "description",
          "type": "string"
        },
        {
          "internalType": "uint256",
          "name": "price",
          "type": "uint256"
        },
        {
          "internalType": "uint256",
          "name": "timeCreated",
          "type": "uint256"
        },
        {
          "internalType": "uint256",
          "name": "timeSold",
          "type": "uint256"
        },
        {
          "internalType": "address",
          "name": "seller",
          "type": "address"
        },
        {
          "internalType": "address",
          "name": "buyer",
          "type": "address"
        }
      ],
      "stateMutability": "view",
      "type": "function"
    },
    {
      "inputs": [],
      "name": "owner",
      "outputs": [
        {
          "internalType": "address payable",
          "name": "",
          "type": "address"
        }
      ],
      "stateMutability": "view",
      "type": "function"
    },
    {
      "inputs": [
        {
          "internalType": "uint256",
          "name": "amount",
          "type": "uint256"
        }
      ],
      "name": "sellMNT",
      "outputs": [],
      "stateMutability": "payable",
      "type": "function"
    },
    {
      "inputs": [
        {
          "internalType": "uint256",
          "name": "comission",
          "type": "uint256"
        }
      ],
      "name": "setContractFee",
      "outputs": [],
      "stateMutability": "nonpayable",
      "type": "function"
    },
    {
      "inputs": [
        {
          "internalType": "uint256",
          "name": "price",
          "type": "uint256"
        }
      ],
      "name": "setMNTPrice",
      "outputs": [],
      "stateMutability": "nonpayable",
      "type": "function"
    }
  ],
  "bytecode": "0x6080604052600160065560006007556000600855336000806101000a81548173ffffffffffffffffffffffffffffffffffffffff021916908373ffffffffffffffffffffffffffffffffffffffff160217905550306040516200006290620000d2565b6200006e9190620001d6565b604051809103906000f0801580156200008b573d6000803e3d6000fd5b50600560006101000a81548173ffffffffffffffffffffffffffffffffffffffff021916908373ffffffffffffffffffffffffffffffffffffffff1602179055506200021d565b611d3d8062003eb883390190565b600082825260208201905092915050565b7f4d4e540000000000000000000000000000000000000000000000000000000000600082015250565b600062000129600383620000e0565b91506200013682620000f1565b602082019050919050565b7f4d61726b65744e6174697665546f6b656e000000000000000000000000000000600082015250565b600062000179601183620000e0565b9150620001868262000141565b602082019050919050565b600073ffffffffffffffffffffffffffffffffffffffff82169050919050565b6000620001be8262000191565b9050919050565b620001d081620001b1565b82525050565b60006060820190508181036000830152620001f1816200011a565b9050818103602083015262000206816200016a565b9050620002176040830184620001c5565b92915050565b613c8b806200022d6000396000f3fe6080604052600436106101405760003560e01c8063720099fe116100b6578063b79da2b41161006f578063b79da2b414610441578063c15688af1461045d578063d41977cd14610486578063e148ad84146104b1578063f169bf07146104ee578063fe18cc501461051757610140565b8063720099fe1461032f5780637d0182da1461035a5780638a15005f146103855780638ab91681146103ae5780638da5cb5b146103eb578063917c43c51461041657610140565b8063234780a711610108578063234780a71461022a57806328b4edc01461026757806343123c54146102905780634aa67d31146102d35780634b3e84a8146102fc57806364432eb81461030657610140565b806308b7e50414610145578063139d931b146101705780631a74194d1461019b5780631e33f67e146101c457806321ce2f6914610201575b600080fd5b34801561015157600080fd5b5061015a610533565b60405161016791906128db565b60405180910390f35b34801561017c57600080fd5b5061018561053d565b60405161019291906128db565b60405180910390f35b3480156101a757600080fd5b506101c260048036038101906101bd9190612936565b610543565b005b3480156101d057600080fd5b506101eb60048036038101906101e69190612936565b6105db565b6040516101f891906128db565b60405180910390f35b34801561020d57600080fd5b5061022860048036038101906102239190612999565b6105f7565b005b34801561023657600080fd5b50610251600480360381019061024c9190612999565b6107ce565b60405161025e9190612b49565b60405180910390f35b34801561027357600080fd5b5061028e60048036038101906102899190612999565b6109e9565b005b34801561029c57600080fd5b506102b760048036038101906102b29190612999565b610bc0565b6040516102ca9796959493929190612bc4565b60405180910390f35b3480156102df57600080fd5b506102fa60048036038101906102f59190612936565b610d52565b005b610304610dea565b005b34801561031257600080fd5b5061032d60048036038101906103289190612d76565b61105d565b005b34801561033b57600080fd5b5061034461120b565b6040516103519190612e60565b60405180910390f35b34801561036657600080fd5b5061036f611231565b60405161037c91906128db565b60405180910390f35b34801561039157600080fd5b506103ac60048036038101906103a79190612999565b611237565b005b3480156103ba57600080fd5b506103d560048036038101906103d09190612ea7565b611530565b6040516103e291906128db565b60405180910390f35b3480156103f757600080fd5b50610400611548565b60405161040d9190612ef5565b60405180910390f35b34801561042257600080fd5b5061042b61156c565b60405161043891906128db565b60405180910390f35b61045b60048036038101906104569190612936565b611576565b005b34801561046957600080fd5b50610484600480360381019061047f9190612999565b611918565b005b34801561049257600080fd5b5061049b611ad2565b6040516104a891906128db565b60405180910390f35b3480156104bd57600080fd5b506104d860048036038101906104d39190612936565b611ad8565b6040516104e591906128db565b60405180910390f35b3480156104fa57600080fd5b5061051560048036038101906105109190612999565b611af4565b005b610531600480360381019061052c9190612936565b611d92565b005b6000600654905090565b60065481565b60008054906101000a900473ffffffffffffffffffffffffffffffffffffffff1673ffffffffffffffffffffffffffffffffffffffff163373ffffffffffffffffffffffffffffffffffffffff16146105d1576040517f08c379a00000000000000000000000000000000000000000000000000000000081526004016105c890612f5c565b60405180910390fd5b8060068190555050565b60006105e5610533565b826105f09190612fda565b9050919050565b6000600260008381526020019081526020016000206003015403610650576040517f08c379a000000000000000000000000000000000000000000000000000000000815260040161064790613057565b60405180910390fd5b3373ffffffffffffffffffffffffffffffffffffffff166002600083815260200190815260200160002060060160009054906101000a900473ffffffffffffffffffffffffffffffffffffffff1673ffffffffffffffffffffffffffffffffffffffff16146106f4576040517f08c379a00000000000000000000000000000000000000000000000000000000081526004016106eb906130c3565b60405180910390fd5b600015156004600083815260200190815260200160002060009054906101000a900460ff1615151461075b576040517f08c379a000000000000000000000000000000000000000000000000000000000815260040161075290613155565b60405180910390fd5b60016004600083815260200190815260200160002060006101000a81548160ff021916908315150217905550803373ffffffffffffffffffffffffffffffffffffffff167f62cbbac07f5a39c0be55540a59c63d85c37cc1b10c7cc77cff43b62e6750a39860405160405180910390a350565b6107d66127fc565b600260008381526020019081526020016000206040518060e0016040529081600082018054610804906131a4565b80601f0160208091040260200160405190810160405280929190818152602001828054610830906131a4565b801561087d5780601f106108525761010080835404028352916020019161087d565b820191906000526020600020905b81548152906001019060200180831161086057829003601f168201915b50505050508152602001600182018054610896906131a4565b80601f01602080910402602001604051908101604052809291908181526020018280546108c2906131a4565b801561090f5780601f106108e45761010080835404028352916020019161090f565b820191906000526020600020905b8154815290600101906020018083116108f257829003601f168201915b505050505081526020016002820154815260200160038201548152602001600482015481526020016005820160009054906101000a900473ffffffffffffffffffffffffffffffffffffffff1673ffffffffffffffffffffffffffffffffffffffff1673ffffffffffffffffffffffffffffffffffffffff1681526020016006820160009054906101000a900473ffffffffffffffffffffffffffffffffffffffff1673ffffffffffffffffffffffffffffffffffffffff1673ffffffffffffffffffffffffffffffffffffffff16815250509050919050565b6000600260008381526020019081526020016000206003015403610a42576040517f08c379a0000000000000000000000000000000000000000000000000000000008152600401610a3990613057565b60405180910390fd5b3373ffffffffffffffffffffffffffffffffffffffff166002600083815260200190815260200160002060050160009054906101000a900473ffffffffffffffffffffffffffffffffffffffff1673ffffffffffffffffffffffffffffffffffffffff1614610ae6576040517f08c379a0000000000000000000000000000000000000000000000000000000008152600401610add90613221565b60405180910390fd5b600015156003600083815260200190815260200160002060009054906101000a900460ff16151514610b4d576040517f08c379a0000000000000000000000000000000000000000000000000000000008152600401610b44906132b3565b60405180910390fd5b60016003600083815260200190815260200160002060006101000a81548160ff021916908315150217905550803373ffffffffffffffffffffffffffffffffffffffff167fc7551c860d718397d581d3d5f550105749414e4aa8578d6a5cee1dc5f9780f2e60405160405180910390a350565b6002602052806000526040600020600091509050806000018054610be3906131a4565b80601f0160208091040260200160405190810160405280929190818152602001828054610c0f906131a4565b8015610c5c5780601f10610c3157610100808354040283529160200191610c5c565b820191906000526020600020905b815481529060010190602001808311610c3f57829003601f168201915b505050505090806001018054610c71906131a4565b80601f0160208091040260200160405190810160405280929190818152602001828054610c9d906131a4565b8015610cea5780601f10610cbf57610100808354040283529160200191610cea565b820191906000526020600020905b815481529060010190602001808311610ccd57829003601f168201915b5050505050908060020154908060030154908060040154908060050160009054906101000a900473ffffffffffffffffffffffffffffffffffffffff16908060060160009054906101000a900473ffffffffffffffffffffffffffffffffffffffff16905087565b60008054906101000a900473ffffffffffffffffffffffffffffffffffffffff1673ffffffffffffffffffffffffffffffffffffffff163373ffffffffffffffffffffffffffffffffffffffff1614610de0576040517f08c379a0000000000000000000000000000000000000000000000000000000008152600401610dd790612f5c565b60405180910390fd5b8060078190555050565b6000610df534611ad8565b9050600560009054906101000a900473ffffffffffffffffffffffffffffffffffffffff1673ffffffffffffffffffffffffffffffffffffffff166370a08231306040518263ffffffff1660e01b8152600401610e5291906132d3565b602060405180830381865afa158015610e6f573d6000803e3d6000fd5b505050506040513d601f19601f82011682018060405250810190610e939190613303565b811115610ed5576040517f08c379a0000000000000000000000000000000000000000000000000000000008152600401610ecc906133a2565b60405180910390fd5b600560009054906101000a900473ffffffffffffffffffffffffffffffffffffffff1673ffffffffffffffffffffffffffffffffffffffff1663a9059cbb33836040518363ffffffff1660e01b8152600401610f329291906133c2565b6020604051808303816000875af1158015610f51573d6000803e3d6000fd5b505050506040513d601f19601f82011682018060405250810190610f759190613423565b610fb4576040517f08c379a0000000000000000000000000000000000000000000000000000000008152600401610fab9061349c565b60405180910390fd5b34600160003373ffffffffffffffffffffffffffffffffffffffff1673ffffffffffffffffffffffffffffffffffffffff168152602001908152602001600020600082825461100391906134bc565b925050819055503373ffffffffffffffffffffffffffffffffffffffff167f92133eec0a29dac0826fb9bbc0ad6e0ab57746e936934db38a311da44e81864a34836040516110529291906134f0565b60405180910390a250565b6000611070848484426000336000611f36565b90506040518060e00160405280858152602001848152602001838152602001428152602001600081526020013373ffffffffffffffffffffffffffffffffffffffff168152602001600073ffffffffffffffffffffffffffffffffffffffff168152506002600083815260200190815260200160002060008201518160000190816110fb91906136bb565b50602082015181600101908161111191906136bb565b5060408201518160020155606082015181600301556080820151816004015560a08201518160050160006101000a81548173ffffffffffffffffffffffffffffffffffffffff021916908373ffffffffffffffffffffffffffffffffffffffff16021790555060c08201518160060160006101000a81548173ffffffffffffffffffffffffffffffffffffffff021916908373ffffffffffffffffffffffffffffffffffffffff160217905550905050803373ffffffffffffffffffffffffffffffffffffffff167ff1335015f0ef5335bcd37297f3c07f4453c4705aa6a3a49737b523edea806b0060405160405180910390a350505050565b600560009054906101000a900473ffffffffffffffffffffffffffffffffffffffff1681565b60085481565b6000600260008381526020019081526020016000206003015403611290576040517f08c379a000000000000000000000000000000000000000000000000000000000815260040161128790613057565b60405180910390fd5b3373ffffffffffffffffffffffffffffffffffffffff166002600083815260200190815260200160002060050160009054906101000a900473ffffffffffffffffffffffffffffffffffffffff1673ffffffffffffffffffffffffffffffffffffffff1614611334576040517f08c379a000000000000000000000000000000000000000000000000000000000815260040161132b90613221565b60405180910390fd5b6004600082815260200190815260200160002060009054906101000a900460ff16611394576040517f08c379a000000000000000000000000000000000000000000000000000000000815260040161138b906137ff565b60405180910390fd5b6003600082815260200190815260200160002060009054906101000a900460ff166113f4576040517f08c379a00000000000000000000000000000000000000000000000000000000081526004016113eb9061386b565b60405180910390fd5b600560009054906101000a900473ffffffffffffffffffffffffffffffffffffffff1673ffffffffffffffffffffffffffffffffffffffff1663a9059cbb3360026000858152602001908152602001600020600201546040518363ffffffff1660e01b81526004016114679291906133c2565b6020604051808303816000875af1158015611486573d6000803e3d6000fd5b505050506040513d601f19601f820116820180604052508101906114aa9190613423565b6114e9576040517f08c379a00000000000000000000000000000000000000000000000000000000081526004016114e09061349c565b60405180910390fd5b803373ffffffffffffffffffffffffffffffffffffffff167fb380c670868351409f4b0935920acd39404f81f5684a42aea6f24b072e1d1ef460405160405180910390a350565b60016020528060005260406000206000915090505481565b60008054906101000a900473ffffffffffffffffffffffffffffffffffffffff1681565b6000600754905090565b6000611581826105db565b9050600060075482611593919061388b565b905080826115a191906138cd565b915080600860008282546115b591906134bc565b9250508190555082600560009054906101000a900473ffffffffffffffffffffffffffffffffffffffff1673ffffffffffffffffffffffffffffffffffffffff1663dd62ed3e33306040518363ffffffff1660e01b815260040161161a929190613901565b602060405180830381865afa158015611637573d6000803e3d6000fd5b505050506040513d601f19601f8201168201806040525081019061165b9190613303565b101561169c576040517f08c379a000000000000000000000000000000000000000000000000000000000815260040161169390613976565b60405180910390fd5b814710156116df576040517f08c379a00000000000000000000000000000000000000000000000000000000081526004016116d690613a08565b60405180910390fd5b600560009054906101000a900473ffffffffffffffffffffffffffffffffffffffff1673ffffffffffffffffffffffffffffffffffffffff166323b872dd3330866040518463ffffffff1660e01b815260040161173e93929190613a28565b6020604051808303816000875af115801561175d573d6000803e3d6000fd5b505050506040513d601f19601f820116820180604052508101906117819190613423565b6117c0576040517f08c379a00000000000000000000000000000000000000000000000000000000081526004016117b790613aab565b60405180910390fd5b60003373ffffffffffffffffffffffffffffffffffffffff16836040516117e690613afc565b60006040518083038185875af1925050503d8060008114611823576040519150601f19603f3d011682016040523d82523d6000602084013e611828565b606091505b505090508061186c576040517f08c379a000000000000000000000000000000000000000000000000000000000815260040161186390613b5d565b60405180910390fd5b82600160003373ffffffffffffffffffffffffffffffffffffffff1673ffffffffffffffffffffffffffffffffffffffff16815260200190815260200160002060008282546118bb91906138cd565b925050819055503373ffffffffffffffffffffffffffffffffffffffff167f181dae94ef47ff3719c8d4089022300b6a3d494fc5bc3aa9f49c1ecfa9e37085858560405161190a9291906134f0565b60405180910390a250505050565b6000600260008381526020019081526020016000206003015403611971576040517f08c379a000000000000000000000000000000000000000000000000000000000815260040161196890613057565b60405180910390fd5b3373ffffffffffffffffffffffffffffffffffffffff166002600083815260200190815260200160002060060160009054906101000a900473ffffffffffffffffffffffffffffffffffffffff1673ffffffffffffffffffffffffffffffffffffffff1614611a15576040517f08c379a0000000000000000000000000000000000000000000000000000000008152600401611a0c906130c3565b60405180910390fd5b600115156003600083815260200190815260200160002060009054906101000a900460ff16151503611a7c576040517f08c379a0000000000000000000000000000000000000000000000000000000008152600401611a7390613155565b60405180910390fd5b6000611a8782611f78565b905080823373ffffffffffffffffffffffffffffffffffffffff167fea64dabf493c8864d22d194cc644b6ba153f4130160d0e0a09afe5f4d5a2721460405160405180910390a45050565b60075481565b6000611ae2610533565b82611aed919061388b565b9050919050565b6000600260008381526020019081526020016000206003015403611b4d576040517f08c379a0000000000000000000000000000000000000000000000000000000008152600401611b4490613057565b60405180910390fd5b6002600082815260200190815260200160002060020154600560009054906101000a900473ffffffffffffffffffffffffffffffffffffffff1673ffffffffffffffffffffffffffffffffffffffff1663dd62ed3e33306040518363ffffffff1660e01b8152600401611bc1929190613901565b602060405180830381865afa158015611bde573d6000803e3d6000fd5b505050506040513d601f19601f82011682018060405250810190611c029190613303565b1015611c43576040517f08c379a0000000000000000000000000000000000000000000000000000000008152600401611c3a90613976565b60405180910390fd5b600560009054906101000a900473ffffffffffffffffffffffffffffffffffffffff1673ffffffffffffffffffffffffffffffffffffffff166323b872dd333060026000868152602001908152602001600020600201546040518463ffffffff1660e01b8152600401611cb893929190613a28565b6020604051808303816000875af1158015611cd7573d6000803e3d6000fd5b505050506040513d601f19601f82011682018060405250810190611cfb9190613423565b611d3a576040517f08c379a0000000000000000000000000000000000000000000000000000000008152600401611d3190613bc9565b60405180910390fd5b6000611d478233426123bb565b905080823373ffffffffffffffffffffffffffffffffffffffff167f082313e1b049b676fde411e40069953f85cec18ef3913431630d6a5dd1f73c8a60405160405180910390a45050565b60008054906101000a900473ffffffffffffffffffffffffffffffffffffffff1673ffffffffffffffffffffffffffffffffffffffff163373ffffffffffffffffffffffffffffffffffffffff1614611e20576040517f08c379a0000000000000000000000000000000000000000000000000000000008152600401611e1790612f5c565b60405180910390fd5b600854811115611e65576040517f08c379a0000000000000000000000000000000000000000000000000000000008152600401611e5c90613c35565b60405180910390fd5b60008060009054906101000a900473ffffffffffffffffffffffffffffffffffffffff1673ffffffffffffffffffffffffffffffffffffffff1682604051611eac90613afc565b60006040518083038185875af1925050503d8060008114611ee9576040519150601f19603f3d011682016040523d82523d6000602084013e611eee565b606091505b5050905080611f32576040517f08c379a0000000000000000000000000000000000000000000000000000000008152600401611f2990613b5d565b60405180910390fd5b5050565b600087878787878787604051602001611f559796959493929190612bc4565b604051602081830303815290604052805190602001209050979650505050505050565b600080600260008481526020019081526020016000206040518060e0016040529081600082018054611fa9906131a4565b80601f0160208091040260200160405190810160405280929190818152602001828054611fd5906131a4565b80156120225780601f10611ff757610100808354040283529160200191612022565b820191906000526020600020905b81548152906001019060200180831161200557829003601f168201915b5050505050815260200160018201805461203b906131a4565b80601f0160208091040260200160405190810160405280929190818152602001828054612067906131a4565b80156120b45780601f10612089576101008083540402835291602001916120b4565b820191906000526020600020905b81548152906001019060200180831161209757829003601f168201915b505050505081526020016002820154815260200160038201548152602001600482015481526020016005820160009054906101000a900473ffffffffffffffffffffffffffffffffffffffff1673ffffffffffffffffffffffffffffffffffffffff1673ffffffffffffffffffffffffffffffffffffffff1681526020016006820160009054906101000a900473ffffffffffffffffffffffffffffffffffffffff1673ffffffffffffffffffffffffffffffffffffffff1673ffffffffffffffffffffffffffffffffffffffff1681525050905060006121b0826000015183602001518460400151856060015160008760a001516000611f36565b90506040518060e0016040528083600001518152602001836020015181526020018360400151815260200183606001518152602001600081526020018360a0015173ffffffffffffffffffffffffffffffffffffffff168152602001600073ffffffffffffffffffffffffffffffffffffffff1681525060026000838152602001908152602001600020600082015181600001908161224f91906136bb565b50602082015181600101908161226591906136bb565b5060408201518160020155606082015181600301556080820151816004015560a08201518160050160006101000a81548173ffffffffffffffffffffffffffffffffffffffff021916908373ffffffffffffffffffffffffffffffffffffffff16021790555060c08201518160060160006101000a81548173ffffffffffffffffffffffffffffffffffffffff021916908373ffffffffffffffffffffffffffffffffffffffff16021790555090505060026000858152602001908152602001600020600080820160006123399190612865565b6001820160006123499190612865565b6002820160009055600382016000905560048201600090556005820160006101000a81549073ffffffffffffffffffffffffffffffffffffffff02191690556006820160006101000a81549073ffffffffffffffffffffffffffffffffffffffff021916905550508092505050919050565b600080600260008681526020019081526020016000206040518060e00160405290816000820180546123ec906131a4565b80601f0160208091040260200160405190810160405280929190818152602001828054612418906131a4565b80156124655780601f1061243a57610100808354040283529160200191612465565b820191906000526020600020905b81548152906001019060200180831161244857829003601f168201915b5050505050815260200160018201805461247e906131a4565b80601f01602080910402602001604051908101604052809291908181526020018280546124aa906131a4565b80156124f75780601f106124cc576101008083540402835291602001916124f7565b820191906000526020600020905b8154815290600101906020018083116124da57829003601f168201915b505050505081526020016002820154815260200160038201548152602001600482015481526020016005820160009054906101000a900473ffffffffffffffffffffffffffffffffffffffff1673ffffffffffffffffffffffffffffffffffffffff1673ffffffffffffffffffffffffffffffffffffffff1681526020016006820160009054906101000a900473ffffffffffffffffffffffffffffffffffffffff1673ffffffffffffffffffffffffffffffffffffffff1673ffffffffffffffffffffffffffffffffffffffff1681525050905060006125f18260000151836020015184604001518560600151888760a001518b611f36565b90506040518060e00160405280836000015181526020018360200151815260200183604001518152602001836060015181526020018581526020018360a0015173ffffffffffffffffffffffffffffffffffffffff1681526020018673ffffffffffffffffffffffffffffffffffffffff1681525060026000838152602001908152602001600020600082015181600001908161268e91906136bb565b5060208201518160010190816126a491906136bb565b5060408201518160020155606082015181600301556080820151816004015560a08201518160050160006101000a81548173ffffffffffffffffffffffffffffffffffffffff021916908373ffffffffffffffffffffffffffffffffffffffff16021790555060c08201518160060160006101000a81548173ffffffffffffffffffffffffffffffffffffffff021916908373ffffffffffffffffffffffffffffffffffffffff16021790555090505060026000878152602001908152602001600020600080820160006127789190612865565b6001820160006127889190612865565b6002820160009055600382016000905560048201600090556005820160006101000a81549073ffffffffffffffffffffffffffffffffffffffff02191690556006820160006101000a81549073ffffffffffffffffffffffffffffffffffffffff0219169055505080925050509392505050565b6040518060e001604052806060815260200160608152602001600081526020016000815260200160008152602001600073ffffffffffffffffffffffffffffffffffffffff168152602001600073ffffffffffffffffffffffffffffffffffffffff1681525090565b508054612871906131a4565b6000825580601f1061288357506128a2565b601f0160209004906000526020600020908101906128a191906128a5565b5b50565b5b808211156128be5760008160009055506001016128a6565b5090565b6000819050919050565b6128d5816128c2565b82525050565b60006020820190506128f060008301846128cc565b92915050565b6000604051905090565b600080fd5b600080fd5b612913816128c2565b811461291e57600080fd5b50565b6000813590506129308161290a565b92915050565b60006020828403121561294c5761294b612900565b5b600061295a84828501612921565b91505092915050565b6000819050919050565b61297681612963565b811461298157600080fd5b50565b6000813590506129938161296d565b92915050565b6000602082840312156129af576129ae612900565b5b60006129bd84828501612984565b91505092915050565b600081519050919050565b600082825260208201905092915050565b60005b83811015612a005780820151818401526020810190506129e5565b60008484015250505050565b6000601f19601f8301169050919050565b6000612a28826129c6565b612a3281856129d1565b9350612a428185602086016129e2565b612a4b81612a0c565b840191505092915050565b612a5f816128c2565b82525050565b600073ffffffffffffffffffffffffffffffffffffffff82169050919050565b6000612a9082612a65565b9050919050565b612aa081612a85565b82525050565b600060e0830160008301518482036000860152612ac38282612a1d565b91505060208301518482036020860152612add8282612a1d565b9150506040830151612af26040860182612a56565b506060830151612b056060860182612a56565b506080830151612b186080860182612a56565b5060a0830151612b2b60a0860182612a97565b5060c0830151612b3e60c0860182612a97565b508091505092915050565b60006020820190508181036000830152612b638184612aa6565b905092915050565b600082825260208201905092915050565b6000612b87826129c6565b612b918185612b6b565b9350612ba18185602086016129e2565b612baa81612a0c565b840191505092915050565b612bbe81612a85565b82525050565b600060e0820190508181036000830152612bde818a612b7c565b90508181036020830152612bf28189612b7c565b9050612c0160408301886128cc565b612c0e60608301876128cc565b612c1b60808301866128cc565b612c2860a0830185612bb5565b612c3560c0830184612bb5565b98975050505050505050565b600080fd5b600080fd5b7f4e487b7100000000000000000000000000000000000000000000000000000000600052604160045260246000fd5b612c8382612a0c565b810181811067ffffffffffffffff82111715612ca257612ca1612c4b565b5b80604052505050565b6000612cb56128f6565b9050612cc18282612c7a565b919050565b600067ffffffffffffffff821115612ce157612ce0612c4b565b5b612cea82612a0c565b9050602081019050919050565b82818337600083830152505050565b6000612d19612d1484612cc6565b612cab565b905082815260208101848484011115612d3557612d34612c46565b5b612d40848285612cf7565b509392505050565b600082601f830112612d5d57612d5c612c41565b5b8135612d6d848260208601612d06565b91505092915050565b600080600060608486031215612d8f57612d8e612900565b5b600084013567ffffffffffffffff811115612dad57612dac612905565b5b612db986828701612d48565b935050602084013567ffffffffffffffff811115612dda57612dd9612905565b5b612de686828701612d48565b9250506040612df786828701612921565b9150509250925092565b6000819050919050565b6000612e26612e21612e1c84612a65565b612e01565b612a65565b9050919050565b6000612e3882612e0b565b9050919050565b6000612e4a82612e2d565b9050919050565b612e5a81612e3f565b82525050565b6000602082019050612e756000830184612e51565b92915050565b612e8481612a85565b8114612e8f57600080fd5b50565b600081359050612ea181612e7b565b92915050565b600060208284031215612ebd57612ebc612900565b5b6000612ecb84828501612e92565b91505092915050565b6000612edf82612a65565b9050919050565b612eef81612ed4565b82525050565b6000602082019050612f0a6000830184612ee6565b92915050565b7f4e6f74206f776e65720000000000000000000000000000000000000000000000600082015250565b6000612f46600983612b6b565b9150612f5182612f10565b602082019050919050565b60006020820190508181036000830152612f7581612f39565b9050919050565b7f4e487b7100000000000000000000000000000000000000000000000000000000600052601260045260246000fd5b7f4e487b7100000000000000000000000000000000000000000000000000000000600052601160045260246000fd5b6000612fe5826128c2565b9150612ff0836128c2565b92508261300057612fff612f7c565b5b828204905092915050565b7f4974656d20646f65736e27742065786973740000000000000000000000000000600082015250565b6000613041601283612b6b565b915061304c8261300b565b602082019050919050565b6000602082019050818103600083015261307081613034565b9050919050565b7f596f7520617265206e6f74206275796572000000000000000000000000000000600082015250565b60006130ad601183612b6b565b91506130b882613077565b602082019050919050565b600060208201905081810360008301526130dc816130a0565b9050919050565b7f4974656d2069736e27742077616974696e6720636f6e6669726d6174696f6e2060008201527f66726f6d20627579657200000000000000000000000000000000000000000000602082015250565b600061313f602a83612b6b565b915061314a826130e3565b604082019050919050565b6000602082019050818103600083015261316e81613132565b9050919050565b7f4e487b7100000000000000000000000000000000000000000000000000000000600052602260045260246000fd5b600060028204905060018216806131bc57607f821691505b6020821081036131cf576131ce613175565b5b50919050565b7f596f7520617265206e6f742073656c6c65720000000000000000000000000000600082015250565b600061320b601283612b6b565b9150613216826131d5565b602082019050919050565b6000602082019050818103600083015261323a816131fe565b9050919050565b7f4974656d2069736e27742077616974696e6720636f6e6669726d6174696f6e2060008201527f66726f6d2073656c6c6572000000000000000000000000000000000000000000602082015250565b600061329d602b83612b6b565b91506132a882613241565b604082019050919050565b600060208201905081810360008301526132cc81613290565b9050919050565b60006020820190506132e86000830184612bb5565b92915050565b6000815190506132fd8161290a565b92915050565b60006020828403121561331957613318612900565b5b6000613327848285016132ee565b91505092915050565b7f496e73756666696369656e7420616d6f756e74206f66204d4e54206f6e20746860008201527f6520636f6e747261637421000000000000000000000000000000000000000000602082015250565b600061338c602b83612b6b565b915061339782613330565b604082019050919050565b600060208201905081810360008301526133bb8161337f565b9050919050565b60006040820190506133d76000830185612bb5565b6133e460208301846128cc565b9392505050565b60008115159050919050565b613400816133eb565b811461340b57600080fd5b50565b60008151905061341d816133f7565b92915050565b60006020828403121561343957613438612900565b5b60006134478482850161340e565b91505092915050565b7f4d4e54207472616e73666572206572726f720000000000000000000000000000600082015250565b6000613486601283612b6b565b915061349182613450565b602082019050919050565b600060208201905081810360008301526134b581613479565b9050919050565b60006134c7826128c2565b91506134d2836128c2565b92508282019050808211156134ea576134e9612fab565b5b92915050565b600060408201905061350560008301856128cc565b61351260208301846128cc565b9392505050565b60008190508160005260206000209050919050565b60006020601f8301049050919050565b600082821b905092915050565b60006008830261357b7fffffffffffffffffffffffffffffffffffffffffffffffffffffffffffffffff8261353e565b613585868361353e565b95508019841693508086168417925050509392505050565b60006135b86135b36135ae846128c2565b612e01565b6128c2565b9050919050565b6000819050919050565b6135d28361359d565b6135e66135de826135bf565b84845461354b565b825550505050565b600090565b6135fb6135ee565b6136068184846135c9565b505050565b5b8181101561362a5761361f6000826135f3565b60018101905061360c565b5050565b601f82111561366f5761364081613519565b6136498461352e565b81016020851015613658578190505b61366c6136648561352e565b83018261360b565b50505b505050565b600082821c905092915050565b600061369260001984600802613674565b1980831691505092915050565b60006136ab8383613681565b9150826002028217905092915050565b6136c4826129c6565b67ffffffffffffffff8111156136dd576136dc612c4b565b5b6136e782546131a4565b6136f282828561362e565b600060209050601f8311600181146137255760008415613713578287015190505b61371d858261369f565b865550613785565b601f19841661373386613519565b60005b8281101561375b57848901518255600182019150602085019450602081019050613736565b868310156137785784890151613774601f891682613681565b8355505b6001600288020188555050505b505050505050565b7f53656c6c696e67206973206e6f7420636f6e6669726d6564206279206275796560008201527f7200000000000000000000000000000000000000000000000000000000000000602082015250565b60006137e9602183612b6b565b91506137f48261378d565b604082019050919050565b60006020820190508181036000830152613818816137dc565b9050919050565b7f436f6e6669726d2073656c6c696e672066697273740000000000000000000000600082015250565b6000613855601583612b6b565b91506138608261381f565b602082019050919050565b6000602082019050818103600083015261388481613848565b9050919050565b6000613896826128c2565b91506138a1836128c2565b92508282026138af816128c2565b915082820484148315176138c6576138c5612fab565b5b5092915050565b60006138d8826128c2565b91506138e3836128c2565b92508282039050818111156138fb576138fa612fab565b5b92915050565b60006040820190506139166000830185612bb5565b6139236020830184612bb5565b9392505050565b7f496e73756666696369656e7420636f6e747261637420616c6c6f77616e636500600082015250565b6000613960601f83612b6b565b915061396b8261392a565b602082019050919050565b6000602082019050818103600083015261398f81613953565b9050919050565b7f496e73756666696369656e7420616d6f756e74206f6620455448206f6e20746860008201527f6520636f6e747261637421000000000000000000000000000000000000000000602082015250565b60006139f2602b83612b6b565b91506139fd82613996565b604082019050919050565b60006020820190508181036000830152613a21816139e5565b9050919050565b6000606082019050613a3d6000830186612bb5565b613a4a6020830185612bb5565b613a5760408301846128cc565b949350505050565b7f4d4e54207472616e73666572206572726f722100000000000000000000000000600082015250565b6000613a95601383612b6b565b9150613aa082613a5f565b602082019050919050565b60006020820190508181036000830152613ac481613a88565b9050919050565b600081905092915050565b50565b6000613ae6600083613acb565b9150613af182613ad6565b600082019050919050565b6000613b0782613ad9565b9150819050919050565b7f455448207472616e73666572206572726f722100000000000000000000000000600082015250565b6000613b47601383612b6b565b9150613b5282613b11565b602082019050919050565b60006020820190508181036000830152613b7681613b3a565b9050919050565b7f546f6b656e207472616e7366657220746f20636f6e7472616374206572726f72600082015250565b6000613bb3602083612b6b565b9150613bbe82613b7d565b602082019050919050565b60006020820190508181036000830152613be281613ba6565b9050919050565b7f4e6f7420656e6f75676820657468657220746f207472616e7366657200000000600082015250565b6000613c1f601c83612b6b565b9150613c2a82613be9565b602082019050919050565b60006020820190508181036000830152613c4e81613c12565b905091905056fea2646970667358221220cd74668ea1279582c48f279d457a145bc7fed2ac374b1f2140e161f641596cc364736f6c6343000811003360806040523480156200001157600080fd5b5060405162001d3d38038062001d3d833981810160405281019062000037919062000427565b818381600390816200004a91906200070c565b5080600490816200005c91906200070c565b505050600062000071620000af60201b60201c565b60ff16600a62000082919062000976565b6103e8620000919190620009c7565b9050620000a58282620000b860201b60201c565b5050505062000afe565b60006012905090565b600073ffffffffffffffffffffffffffffffffffffffff168273ffffffffffffffffffffffffffffffffffffffff16036200012a576040517f08c379a0000000000000000000000000000000000000000000000000000000008152600401620001219062000a73565b60405180910390fd5b6200013e600083836200022560201b60201c565b806002600082825462000152919062000a95565b92505081905550806000808473ffffffffffffffffffffffffffffffffffffffff1673ffffffffffffffffffffffffffffffffffffffff168152602001908152602001600020600082825401925050819055508173ffffffffffffffffffffffffffffffffffffffff16600073ffffffffffffffffffffffffffffffffffffffff167fddf252ad1be2c89b69c2b068fc378daa952ba7f163c4a11628f55a4df523b3ef8360405162000205919062000ae1565b60405180910390a362000221600083836200022a60201b60201c565b5050565b505050565b505050565b6000604051905090565b600080fd5b600080fd5b600080fd5b600080fd5b6000601f19601f8301169050919050565b7f4e487b7100000000000000000000000000000000000000000000000000000000600052604160045260246000fd5b62000298826200024d565b810181811067ffffffffffffffff82111715620002ba57620002b96200025e565b5b80604052505050565b6000620002cf6200022f565b9050620002dd82826200028d565b919050565b600067ffffffffffffffff8211156200030057620002ff6200025e565b5b6200030b826200024d565b9050602081019050919050565b60005b83811015620003385780820151818401526020810190506200031b565b60008484015250505050565b60006200035b6200035584620002e2565b620002c3565b9050828152602081018484840111156200037a576200037962000248565b5b6200038784828562000318565b509392505050565b600082601f830112620003a757620003a662000243565b5b8151620003b984826020860162000344565b91505092915050565b600073ffffffffffffffffffffffffffffffffffffffff82169050919050565b6000620003ef82620003c2565b9050919050565b6200040181620003e2565b81146200040d57600080fd5b50565b6000815190506200042181620003f6565b92915050565b60008060006060848603121562000443576200044262000239565b5b600084015167ffffffffffffffff8111156200046457620004636200023e565b5b62000472868287016200038f565b935050602084015167ffffffffffffffff8111156200049657620004956200023e565b5b620004a4868287016200038f565b9250506040620004b78682870162000410565b9150509250925092565b600081519050919050565b7f4e487b7100000000000000000000000000000000000000000000000000000000600052602260045260246000fd5b600060028204905060018216806200051457607f821691505b6020821081036200052a5762000529620004cc565b5b50919050565b60008190508160005260206000209050919050565b60006020601f8301049050919050565b600082821b905092915050565b600060088302620005947fffffffffffffffffffffffffffffffffffffffffffffffffffffffffffffffff8262000555565b620005a0868362000555565b95508019841693508086168417925050509392505050565b6000819050919050565b6000819050919050565b6000620005ed620005e7620005e184620005b8565b620005c2565b620005b8565b9050919050565b6000819050919050565b6200060983620005cc565b620006216200061882620005f4565b84845462000562565b825550505050565b600090565b6200063862000629565b62000645818484620005fe565b505050565b5b818110156200066d57620006616000826200062e565b6001810190506200064b565b5050565b601f821115620006bc57620006868162000530565b620006918462000545565b81016020851015620006a1578190505b620006b9620006b08562000545565b8301826200064a565b50505b505050565b600082821c905092915050565b6000620006e160001984600802620006c1565b1980831691505092915050565b6000620006fc8383620006ce565b9150826002028217905092915050565b6200071782620004c1565b67ffffffffffffffff8111156200073357620007326200025e565b5b6200073f8254620004fb565b6200074c82828562000671565b600060209050601f8311600181146200078457600084156200076f578287015190505b6200077b8582620006ee565b865550620007eb565b601f198416620007948662000530565b60005b82811015620007be5784890151825560018201915060208501945060208101905062000797565b86831015620007de5784890151620007da601f891682620006ce565b8355505b6001600288020188555050505b505050505050565b7f4e487b7100000000000000000000000000000000000000000000000000000000600052601160045260246000fd5b60008160011c9050919050565b6000808291508390505b60018511156200088157808604811115620008595762000858620007f3565b5b6001851615620008695780820291505b8081029050620008798562000822565b945062000839565b94509492505050565b6000826200089c57600190506200096f565b81620008ac57600090506200096f565b8160018114620008c55760028114620008d05762000906565b60019150506200096f565b60ff841115620008e557620008e4620007f3565b5b8360020a915084821115620008ff57620008fe620007f3565b5b506200096f565b5060208310610133831016604e8410600b8410161715620009405782820a9050838111156200093a5762000939620007f3565b5b6200096f565b6200094f84848460016200082f565b92509050818404811115620009695762000968620007f3565b5b81810290505b9392505050565b60006200098382620005b8565b91506200099083620005b8565b9250620009bf7fffffffffffffffffffffffffffffffffffffffffffffffffffffffffffffffff84846200088a565b905092915050565b6000620009d482620005b8565b9150620009e183620005b8565b9250828202620009f181620005b8565b9150828204841483151762000a0b5762000a0a620007f3565b5b5092915050565b600082825260208201905092915050565b7f45524332303a206d696e7420746f20746865207a65726f206164647265737300600082015250565b600062000a5b601f8362000a12565b915062000a688262000a23565b602082019050919050565b6000602082019050818103600083015262000a8e8162000a4c565b9050919050565b600062000aa282620005b8565b915062000aaf83620005b8565b925082820190508082111562000aca5762000ac9620007f3565b5b92915050565b62000adb81620005b8565b82525050565b600060208201905062000af8600083018462000ad0565b92915050565b61122f8062000b0e6000396000f3fe608060405234801561001057600080fd5b50600436106100a95760003560e01c80633950935111610071578063395093511461016857806370a082311461019857806395d89b41146101c8578063a457c2d7146101e6578063a9059cbb14610216578063dd62ed3e14610246576100a9565b806306fdde03146100ae578063095ea7b3146100cc57806318160ddd146100fc57806323b872dd1461011a578063313ce5671461014a575b600080fd5b6100b6610276565b6040516100c39190610b0c565b60405180910390f35b6100e660048036038101906100e19190610bc7565b610308565b6040516100f39190610c22565b60405180910390f35b61010461032b565b6040516101119190610c4c565b60405180910390f35b610134600480360381019061012f9190610c67565b610335565b6040516101419190610c22565b60405180910390f35b610152610364565b60405161015f9190610cd6565b60405180910390f35b610182600480360381019061017d9190610bc7565b61036d565b60405161018f9190610c22565b60405180910390f35b6101b260048036038101906101ad9190610cf1565b6103a4565b6040516101bf9190610c4c565b60405180910390f35b6101d06103ec565b6040516101dd9190610b0c565b60405180910390f35b61020060048036038101906101fb9190610bc7565b61047e565b60405161020d9190610c22565b60405180910390f35b610230600480360381019061022b9190610bc7565b6104f5565b60405161023d9190610c22565b60405180910390f35b610260600480360381019061025b9190610d1e565b610518565b60405161026d9190610c4c565b60405180910390f35b60606003805461028590610d8d565b80601f01602080910402602001604051908101604052809291908181526020018280546102b190610d8d565b80156102fe5780601f106102d3576101008083540402835291602001916102fe565b820191906000526020600020905b8154815290600101906020018083116102e157829003601f168201915b5050505050905090565b60008061031361059f565b90506103208185856105a7565b600191505092915050565b6000600254905090565b60008061034061059f565b905061034d858285610770565b6103588585856107fc565b60019150509392505050565b60006012905090565b60008061037861059f565b905061039981858561038a8589610518565b6103949190610ded565b6105a7565b600191505092915050565b60008060008373ffffffffffffffffffffffffffffffffffffffff1673ffffffffffffffffffffffffffffffffffffffff168152602001908152602001600020549050919050565b6060600480546103fb90610d8d565b80601f016020809104026020016040519081016040528092919081815260200182805461042790610d8d565b80156104745780601f1061044957610100808354040283529160200191610474565b820191906000526020600020905b81548152906001019060200180831161045757829003601f168201915b5050505050905090565b60008061048961059f565b905060006104978286610518565b9050838110156104dc576040517f08c379a00000000000000000000000000000000000000000000000000000000081526004016104d390610e93565b60405180910390fd5b6104e982868684036105a7565b60019250505092915050565b60008061050061059f565b905061050d8185856107fc565b600191505092915050565b6000600160008473ffffffffffffffffffffffffffffffffffffffff1673ffffffffffffffffffffffffffffffffffffffff16815260200190815260200160002060008373ffffffffffffffffffffffffffffffffffffffff1673ffffffffffffffffffffffffffffffffffffffff16815260200190815260200160002054905092915050565b600033905090565b600073ffffffffffffffffffffffffffffffffffffffff168373ffffffffffffffffffffffffffffffffffffffff1603610616576040517f08c379a000000000000000000000000000000000000000000000000000000000815260040161060d90610f25565b60405180910390fd5b600073ffffffffffffffffffffffffffffffffffffffff168273ffffffffffffffffffffffffffffffffffffffff1603610685576040517f08c379a000000000000000000000000000000000000000000000000000000000815260040161067c90610fb7565b60405180910390fd5b80600160008573ffffffffffffffffffffffffffffffffffffffff1673ffffffffffffffffffffffffffffffffffffffff16815260200190815260200160002060008473ffffffffffffffffffffffffffffffffffffffff1673ffffffffffffffffffffffffffffffffffffffff168152602001908152602001600020819055508173ffffffffffffffffffffffffffffffffffffffff168373ffffffffffffffffffffffffffffffffffffffff167f8c5be1e5ebec7d5bd14f71427d1e84f3dd0314c0f7b2291e5b200ac8c7c3b925836040516107639190610c4c565b60405180910390a3505050565b600061077c8484610518565b90507fffffffffffffffffffffffffffffffffffffffffffffffffffffffffffffffff81146107f657818110156107e8576040517f08c379a00000000000000000000000000000000000000000000000000000000081526004016107df90611023565b60405180910390fd5b6107f584848484036105a7565b5b50505050565b600073ffffffffffffffffffffffffffffffffffffffff168373ffffffffffffffffffffffffffffffffffffffff160361086b576040517f08c379a0000000000000000000000000000000000000000000000000000000008152600401610862906110b5565b60405180910390fd5b600073ffffffffffffffffffffffffffffffffffffffff168273ffffffffffffffffffffffffffffffffffffffff16036108da576040517f08c379a00000000000000000000000000000000000000000000000000000000081526004016108d190611147565b60405180910390fd5b6108e5838383610a72565b60008060008573ffffffffffffffffffffffffffffffffffffffff1673ffffffffffffffffffffffffffffffffffffffff1681526020019081526020016000205490508181101561096b576040517f08c379a0000000000000000000000000000000000000000000000000000000008152600401610962906111d9565b60405180910390fd5b8181036000808673ffffffffffffffffffffffffffffffffffffffff1673ffffffffffffffffffffffffffffffffffffffff16815260200190815260200160002081905550816000808573ffffffffffffffffffffffffffffffffffffffff1673ffffffffffffffffffffffffffffffffffffffff168152602001908152602001600020600082825401925050819055508273ffffffffffffffffffffffffffffffffffffffff168473ffffffffffffffffffffffffffffffffffffffff167fddf252ad1be2c89b69c2b068fc378daa952ba7f163c4a11628f55a4df523b3ef84604051610a599190610c4c565b60405180910390a3610a6c848484610a77565b50505050565b505050565b505050565b600081519050919050565b600082825260208201905092915050565b60005b83811015610ab6578082015181840152602081019050610a9b565b60008484015250505050565b6000601f19601f8301169050919050565b6000610ade82610a7c565b610ae88185610a87565b9350610af8818560208601610a98565b610b0181610ac2565b840191505092915050565b60006020820190508181036000830152610b268184610ad3565b905092915050565b600080fd5b600073ffffffffffffffffffffffffffffffffffffffff82169050919050565b6000610b5e82610b33565b9050919050565b610b6e81610b53565b8114610b7957600080fd5b50565b600081359050610b8b81610b65565b92915050565b6000819050919050565b610ba481610b91565b8114610baf57600080fd5b50565b600081359050610bc181610b9b565b92915050565b60008060408385031215610bde57610bdd610b2e565b5b6000610bec85828601610b7c565b9250506020610bfd85828601610bb2565b9150509250929050565b60008115159050919050565b610c1c81610c07565b82525050565b6000602082019050610c376000830184610c13565b92915050565b610c4681610b91565b82525050565b6000602082019050610c616000830184610c3d565b92915050565b600080600060608486031215610c8057610c7f610b2e565b5b6000610c8e86828701610b7c565b9350506020610c9f86828701610b7c565b9250506040610cb086828701610bb2565b9150509250925092565b600060ff82169050919050565b610cd081610cba565b82525050565b6000602082019050610ceb6000830184610cc7565b92915050565b600060208284031215610d0757610d06610b2e565b5b6000610d1584828501610b7c565b91505092915050565b60008060408385031215610d3557610d34610b2e565b5b6000610d4385828601610b7c565b9250506020610d5485828601610b7c565b9150509250929050565b7f4e487b7100000000000000000000000000000000000000000000000000000000600052602260045260246000fd5b60006002820490506001821680610da557607f821691505b602082108103610db857610db7610d5e565b5b50919050565b7f4e487b7100000000000000000000000000000000000000000000000000000000600052601160045260246000fd5b6000610df882610b91565b9150610e0383610b91565b9250828201905080821115610e1b57610e1a610dbe565b5b92915050565b7f45524332303a2064656372656173656420616c6c6f77616e63652062656c6f7760008201527f207a65726f000000000000000000000000000000000000000000000000000000602082015250565b6000610e7d602583610a87565b9150610e8882610e21565b604082019050919050565b60006020820190508181036000830152610eac81610e70565b9050919050565b7f45524332303a20617070726f76652066726f6d20746865207a65726f2061646460008201527f7265737300000000000000000000000000000000000000000000000000000000602082015250565b6000610f0f602483610a87565b9150610f1a82610eb3565b604082019050919050565b60006020820190508181036000830152610f3e81610f02565b9050919050565b7f45524332303a20617070726f766520746f20746865207a65726f20616464726560008201527f7373000000000000000000000000000000000000000000000000000000000000602082015250565b6000610fa1602283610a87565b9150610fac82610f45565b604082019050919050565b60006020820190508181036000830152610fd081610f94565b9050919050565b7f45524332303a20696e73756666696369656e7420616c6c6f77616e6365000000600082015250565b600061100d601d83610a87565b915061101882610fd7565b602082019050919050565b6000602082019050818103600083015261103c81611000565b9050919050565b7f45524332303a207472616e736665722066726f6d20746865207a65726f20616460008201527f6472657373000000000000000000000000000000000000000000000000000000602082015250565b600061109f602583610a87565b91506110aa82611043565b604082019050919050565b600060208201905081810360008301526110ce81611092565b9050919050565b7f45524332303a207472616e7366657220746f20746865207a65726f206164647260008201527f6573730000000000000000000000000000000000000000000000000000000000602082015250565b6000611131602383610a87565b915061113c826110d5565b604082019050919050565b6000602082019050818103600083015261116081611124565b9050919050565b7f45524332303a207472616e7366657220616d6f756e742065786365656473206260008201527f616c616e63650000000000000000000000000000000000000000000000000000602082015250565b60006111c3602683610a87565b91506111ce82611167565b604082019050919050565b600060208201905081810360008301526111f2816111b6565b905091905056fea2646970667358221220a22ffb96f252c2e30c29b74f1484b176a9f6aab09af6192d2446aaa18d740aab64736f6c63430008110033",
  "linkReferences": {},
  "deployedLinkReferences": {}
}