{
  "_format": "hh-sol-artifact-1",
  "contractName": "Market",
  "sourceName": "contracts/Market.sol",
  "abi": [
    {
      "inputs": [],
      "stateMutability": "payable",
      "type": "constructor"
    },
    {
      "inputs": [
        {
          "internalType": "uint256",
          "name": "amount",
          "type": "uint256"
        }
      ],
      "name": "ETH2MNT",
      "outputs": [
        {
          "internalType": "uint256",
          "name": "",
          "type": "uint256"
        }
      ],
      "stateMutability": "view",
      "type": "function"
    },
    {
      "inputs": [],
      "name": "MNT",
      "outputs": [
        {
          "internalType": "contract IERC20",
          "name": "",
          "type": "address"
        }
      ],
      "stateMutability": "view",
      "type": "function"
    },
    {
      "inputs": [
        {
          "internalType": "uint256",
          "name": "amount",
          "type": "uint256"
        }
      ],
      "name": "MNT2ETH",
      "outputs": [
        {
          "internalType": "uint256",
          "name": "",
          "type": "uint256"
        }
      ],
      "stateMutability": "view",
      "type": "function"
    },
    {
      "inputs": [],
      "name": "MNTPrice",
      "outputs": [
        {
          "internalType": "uint256",
          "name": "",
          "type": "uint256"
        }
      ],
      "stateMutability": "view",
      "type": "function"
    },
    {
      "inputs": [
        {
          "internalType": "string",
          "name": "name_",
          "type": "string"
        },
        {
          "internalType": "string",
          "name": "description_",
          "type": "string"
        },
        {
          "internalType": "uint256",
          "name": "price_",
          "type": "uint256"
        }
      ],
      "name": "addItem",
      "outputs": [],
      "stateMutability": "nonpayable",
      "type": "function"
    },
    {
      "inputs": [
        {
          "internalType": "bytes32",
          "name": "hash",
          "type": "bytes32"
        }
      ],
      "name": "buyItem",
      "outputs": [
        {
          "internalType": "bytes32",
          "name": "",
          "type": "bytes32"
        }
      ],
      "stateMutability": "nonpayable",
      "type": "function"
    },
    {
      "inputs": [],
      "name": "buyMNT",
      "outputs": [],
      "stateMutability": "payable",
      "type": "function"
    },
    {
      "inputs": [
        {
          "internalType": "bytes32",
          "name": "hash",
          "type": "bytes32"
        }
      ],
      "name": "cancelBuying",
      "outputs": [],
      "stateMutability": "nonpayable",
      "type": "function"
    },
    {
      "inputs": [
        {
          "internalType": "uint256",
          "name": "amount",
          "type": "uint256"
        }
      ],
      "name": "claimContractFee",
      "outputs": [],
      "stateMutability": "payable",
      "type": "function"
    },
    {
      "inputs": [
        {
          "internalType": "bytes32",
          "name": "hash",
          "type": "bytes32"
        }
      ],
      "name": "claimFrozenCNT",
      "outputs": [],
      "stateMutability": "nonpayable",
      "type": "function"
    },
    {
      "inputs": [
        {
          "internalType": "bytes32",
          "name": "hash",
          "type": "bytes32"
        }
      ],
      "name": "confirmBuying",
      "outputs": [],
      "stateMutability": "nonpayable",
      "type": "function"
    },
    {
      "inputs": [
        {
          "internalType": "bytes32",
          "name": "hash",
          "type": "bytes32"
        }
      ],
      "name": "confirmSelling",
      "outputs": [],
      "stateMutability": "nonpayable",
      "type": "function"
    },
    {
      "inputs": [],
      "name": "contractFee",
      "outputs": [
        {
          "internalType": "uint256",
          "name": "",
          "type": "uint256"
        }
      ],
      "stateMutability": "view",
      "type": "function"
    },
    {
      "inputs": [],
      "name": "contractFeeSum",
      "outputs": [
        {
          "internalType": "uint256",
          "name": "",
          "type": "uint256"
        }
      ],
      "stateMutability": "view",
      "type": "function"
    },
    {
      "inputs": [],
      "name": "getContractFee",
      "outputs": [
        {
          "internalType": "uint256",
          "name": "",
          "type": "uint256"
        }
      ],
      "stateMutability": "view",
      "type": "function"
    },
    {
      "inputs": [
        {
          "internalType": "bytes32",
          "name": "hash",
          "type": "bytes32"
        }
      ],
      "name": "getItemByHash",
      "outputs": [
        {
          "components": [
            {
              "internalType": "string",
              "name": "name",
              "type": "string"
            },
            {
              "internalType": "string",
              "name": "description",
              "type": "string"
            },
            {
              "internalType": "uint256",
              "name": "price",
              "type": "uint256"
            },
            {
              "internalType": "uint256",
              "name": "timeCreated",
              "type": "uint256"
            },
            {
              "internalType": "uint256",
              "name": "timeSold",
              "type": "uint256"
            },
            {
              "internalType": "address",
              "name": "seller",
              "type": "address"
            },
            {
              "internalType": "address",
              "name": "buyer",
              "type": "address"
            }
          ],
          "internalType": "struct Market.Item",
          "name": "",
          "type": "tuple"
        }
      ],
      "stateMutability": "view",
      "type": "function"
    },
    {
      "inputs": [],
      "name": "getMNTPrice",
      "outputs": [
        {
          "internalType": "uint256",
          "name": "",
          "type": "uint256"
        }
      ],
      "stateMutability": "view",
      "type": "function"
    },
    {
      "inputs": [],
      "name": "owner",
      "outputs": [
        {
          "internalType": "address payable",
          "name": "",
          "type": "address"
        }
      ],
      "stateMutability": "view",
      "type": "function"
    },
    {
      "inputs": [
        {
          "internalType": "uint256",
          "name": "amount",
          "type": "uint256"
        }
      ],
      "name": "sellMNT",
      "outputs": [],
      "stateMutability": "payable",
      "type": "function"
    },
    {
      "inputs": [
        {
          "internalType": "uint256",
          "name": "comission",
          "type": "uint256"
        }
      ],
      "name": "setContractFee",
      "outputs": [],
      "stateMutability": "nonpayable",
      "type": "function"
    },
    {
      "inputs": [
        {
          "internalType": "uint256",
          "name": "price",
          "type": "uint256"
        }
      ],
      "name": "setMNTPrice",
      "outputs": [],
      "stateMutability": "nonpayable",
      "type": "function"
    }
  ],
  "bytecode": "0x6080604052600160065560006007556000600855336000806101000a81548173ffffffffffffffffffffffffffffffffffffffff021916908373ffffffffffffffffffffffffffffffffffffffff160217905550306040516200006290620000d2565b6200006e9190620001d6565b604051809103906000f0801580156200008b573d6000803e3d6000fd5b50600560006101000a81548173ffffffffffffffffffffffffffffffffffffffff021916908373ffffffffffffffffffffffffffffffffffffffff1602179055506200021d565b611d3d80620039f583390190565b600082825260208201905092915050565b7f4d4e540000000000000000000000000000000000000000000000000000000000600082015250565b600062000129600383620000e0565b91506200013682620000f1565b602082019050919050565b7f4d61726b65744e6174697665546f6b656e000000000000000000000000000000600082015250565b600062000179601183620000e0565b9150620001868262000141565b602082019050919050565b600073ffffffffffffffffffffffffffffffffffffffff82169050919050565b6000620001be8262000191565b9050919050565b620001d081620001b1565b82525050565b60006060820190508181036000830152620001f1816200011a565b9050818103602083015262000206816200016a565b9050620002176040830184620001c5565b92915050565b6137c8806200022d6000396000f3fe60806040526004361061012a5760003560e01c806364432eb8116100ab578063b79da2b41161006f578063b79da2b4146103ab578063c15688af146103c7578063d41977cd146103f0578063e148ad841461041b578063f169bf0714610458578063fe18cc50146104955761012a565b806364432eb8146102d6578063720099fe146102ff5780637d0182da1461032a5780638da5cb5b14610355578063917c43c5146103805761012a565b806321ce2f69116100f257806321ce2f6914610214578063234780a71461023d57806328b4edc01461027a5780634aa67d31146102a35780634b3e84a8146102cc5761012a565b806308b7e5041461012f578063139d931b1461015a5780631a74194d146101855780631cde8f38146101ae5780631e33f67e146101d7575b600080fd5b34801561013b57600080fd5b506101446104b1565b6040516101519190612470565b60405180910390f35b34801561016657600080fd5b5061016f6104bb565b60405161017c9190612470565b60405180910390f35b34801561019157600080fd5b506101ac60048036038101906101a791906124cb565b6104c1565b005b3480156101ba57600080fd5b506101d560048036038101906101d0919061252e565b610559565b005b3480156101e357600080fd5b506101fe60048036038101906101f991906124cb565b61080e565b60405161020b9190612470565b60405180910390f35b34801561022057600080fd5b5061023b6004803603810190610236919061252e565b61082a565b005b34801561024957600080fd5b50610264600480360381019061025f919061252e565b6109bd565b60405161027191906126de565b60405180910390f35b34801561028657600080fd5b506102a1600480360381019061029c919061252e565b610bd8565b005b3480156102af57600080fd5b506102ca60048036038101906102c591906124cb565b610d6b565b005b6102d4610e03565b005b3480156102e257600080fd5b506102fd60048036038101906102f89190612835565b611026565b005b34801561030b57600080fd5b50610314611190565b604051610321919061291f565b60405180910390f35b34801561033657600080fd5b5061033f6111b6565b60405161034c9190612470565b60405180910390f35b34801561036157600080fd5b5061036a6111bc565b604051610377919061295b565b60405180910390f35b34801561038c57600080fd5b506103956111e0565b6040516103a29190612470565b60405180910390f35b6103c560048036038101906103c091906124cb565b6111ea565b005b3480156103d357600080fd5b506103ee60048036038101906103e9919061252e565b61153c565b005b3480156103fc57600080fd5b506104056116ac565b6040516104129190612470565b60405180910390f35b34801561042757600080fd5b50610442600480360381019061043d91906124cb565b6116b2565b60405161044f9190612470565b60405180910390f35b34801561046457600080fd5b5061047f600480360381019061047a919061252e565b6116ce565b60405161048c9190612985565b60405180910390f35b6104af60048036038101906104aa91906124cb565b61192d565b005b6000600654905090565b60065481565b60008054906101000a900473ffffffffffffffffffffffffffffffffffffffff1673ffffffffffffffffffffffffffffffffffffffff163373ffffffffffffffffffffffffffffffffffffffff161461054f576040517f08c379a0000000000000000000000000000000000000000000000000000000008152600401610546906129fd565b60405180910390fd5b8060068190555050565b60006002600083815260200190815260200160002060030154146105b2576040517f08c379a00000000000000000000000000000000000000000000000000000000081526004016105a990612a69565b60405180910390fd5b3373ffffffffffffffffffffffffffffffffffffffff166002600083815260200190815260200160002060050160009054906101000a900473ffffffffffffffffffffffffffffffffffffffff1673ffffffffffffffffffffffffffffffffffffffff1614610656576040517f08c379a000000000000000000000000000000000000000000000000000000000815260040161064d90612ad5565b60405180910390fd5b6004600082815260200190815260200160002060009054906101000a900460ff166106b6576040517f08c379a00000000000000000000000000000000000000000000000000000000081526004016106ad90612b67565b60405180910390fd5b6003600082815260200190815260200160002060009054906101000a900460ff16610716576040517f08c379a000000000000000000000000000000000000000000000000000000000815260040161070d90612bd3565b60405180910390fd5b600560009054906101000a900473ffffffffffffffffffffffffffffffffffffffff1673ffffffffffffffffffffffffffffffffffffffff1663a9059cbb3360026000858152602001908152602001600020600201546040518363ffffffff1660e01b8152600401610789929190612c02565b6020604051808303816000875af11580156107a8573d6000803e3d6000fd5b505050506040513d601f19601f820116820180604052508101906107cc9190612c63565b61080b576040517f08c379a000000000000000000000000000000000000000000000000000000000815260040161080290612cdc565b60405180910390fd5b50565b60006108186104b1565b826108239190612d5a565b9050919050565b6000600260008381526020019081526020016000206003015414610883576040517f08c379a000000000000000000000000000000000000000000000000000000000815260040161087a90612a69565b60405180910390fd5b3373ffffffffffffffffffffffffffffffffffffffff166002600083815260200190815260200160002060060160009054906101000a900473ffffffffffffffffffffffffffffffffffffffff1673ffffffffffffffffffffffffffffffffffffffff1614610927576040517f08c379a000000000000000000000000000000000000000000000000000000000815260040161091e90612dd7565b60405180910390fd5b600015156004600083815260200190815260200160002060009054906101000a900460ff1615151461098e576040517f08c379a000000000000000000000000000000000000000000000000000000000815260040161098590612e69565b60405180910390fd5b60016004600083815260200190815260200160002060006101000a81548160ff02191690831515021790555050565b6109c5612391565b600260008381526020019081526020016000206040518060e00160405290816000820180546109f390612eb8565b80601f0160208091040260200160405190810160405280929190818152602001828054610a1f90612eb8565b8015610a6c5780601f10610a4157610100808354040283529160200191610a6c565b820191906000526020600020905b815481529060010190602001808311610a4f57829003601f168201915b50505050508152602001600182018054610a8590612eb8565b80601f0160208091040260200160405190810160405280929190818152602001828054610ab190612eb8565b8015610afe5780601f10610ad357610100808354040283529160200191610afe565b820191906000526020600020905b815481529060010190602001808311610ae157829003601f168201915b505050505081526020016002820154815260200160038201548152602001600482015481526020016005820160009054906101000a900473ffffffffffffffffffffffffffffffffffffffff1673ffffffffffffffffffffffffffffffffffffffff1673ffffffffffffffffffffffffffffffffffffffff1681526020016006820160009054906101000a900473ffffffffffffffffffffffffffffffffffffffff1673ffffffffffffffffffffffffffffffffffffffff1673ffffffffffffffffffffffffffffffffffffffff16815250509050919050565b6000600260008381526020019081526020016000206003015414610c31576040517f08c379a0000000000000000000000000000000000000000000000000000000008152600401610c2890612a69565b60405180910390fd5b3373ffffffffffffffffffffffffffffffffffffffff166002600083815260200190815260200160002060050160009054906101000a900473ffffffffffffffffffffffffffffffffffffffff1673ffffffffffffffffffffffffffffffffffffffff1614610cd5576040517f08c379a0000000000000000000000000000000000000000000000000000000008152600401610ccc90612ad5565b60405180910390fd5b600015156003600083815260200190815260200160002060009054906101000a900460ff16151514610d3c576040517f08c379a0000000000000000000000000000000000000000000000000000000008152600401610d3390612f5b565b60405180910390fd5b60016003600083815260200190815260200160002060006101000a81548160ff02191690831515021790555050565b60008054906101000a900473ffffffffffffffffffffffffffffffffffffffff1673ffffffffffffffffffffffffffffffffffffffff163373ffffffffffffffffffffffffffffffffffffffff1614610df9576040517f08c379a0000000000000000000000000000000000000000000000000000000008152600401610df0906129fd565b60405180910390fd5b8060078190555050565b6000610e0e346116b2565b9050600560009054906101000a900473ffffffffffffffffffffffffffffffffffffffff1673ffffffffffffffffffffffffffffffffffffffff166370a08231306040518263ffffffff1660e01b8152600401610e6b9190612f7b565b602060405180830381865afa158015610e88573d6000803e3d6000fd5b505050506040513d601f19601f82011682018060405250810190610eac9190612fab565b811115610eee576040517f08c379a0000000000000000000000000000000000000000000000000000000008152600401610ee59061304a565b60405180910390fd5b600560009054906101000a900473ffffffffffffffffffffffffffffffffffffffff1673ffffffffffffffffffffffffffffffffffffffff1663a9059cbb33836040518363ffffffff1660e01b8152600401610f4b929190612c02565b6020604051808303816000875af1158015610f6a573d6000803e3d6000fd5b505050506040513d601f19601f82011682018060405250810190610f8e9190612c63565b610fcd576040517f08c379a0000000000000000000000000000000000000000000000000000000008152600401610fc490612cdc565b60405180910390fd5b34600160003373ffffffffffffffffffffffffffffffffffffffff1673ffffffffffffffffffffffffffffffffffffffff168152602001908152602001600020600082825461101c919061306a565b9250508190555050565b6000611039848484426000336000611ad1565b90506040518060e00160405280858152602001848152602001838152602001428152602001600081526020013373ffffffffffffffffffffffffffffffffffffffff168152602001600073ffffffffffffffffffffffffffffffffffffffff168152506002600083815260200190815260200160002060008201518160000190816110c49190613240565b5060208201518160010190816110da9190613240565b5060408201518160020155606082015181600301556080820151816004015560a08201518160050160006101000a81548173ffffffffffffffffffffffffffffffffffffffff021916908373ffffffffffffffffffffffffffffffffffffffff16021790555060c08201518160060160006101000a81548173ffffffffffffffffffffffffffffffffffffffff021916908373ffffffffffffffffffffffffffffffffffffffff16021790555090505050505050565b600560009054906101000a900473ffffffffffffffffffffffffffffffffffffffff1681565b60085481565b60008054906101000a900473ffffffffffffffffffffffffffffffffffffffff1681565b6000600754905090565b60006111f58261080e565b90506000600754826112079190613312565b905080826112159190613354565b91508060086000828254611229919061306a565b9250508190555082600560009054906101000a900473ffffffffffffffffffffffffffffffffffffffff1673ffffffffffffffffffffffffffffffffffffffff1663dd62ed3e33306040518363ffffffff1660e01b815260040161128e929190613388565b602060405180830381865afa1580156112ab573d6000803e3d6000fd5b505050506040513d601f19601f820116820180604052508101906112cf9190612fab565b1015611310576040517f08c379a0000000000000000000000000000000000000000000000000000000008152600401611307906133fd565b60405180910390fd5b81471015611353576040517f08c379a000000000000000000000000000000000000000000000000000000000815260040161134a9061348f565b60405180910390fd5b600560009054906101000a900473ffffffffffffffffffffffffffffffffffffffff1673ffffffffffffffffffffffffffffffffffffffff166323b872dd3330866040518463ffffffff1660e01b81526004016113b2939291906134af565b6020604051808303816000875af11580156113d1573d6000803e3d6000fd5b505050506040513d601f19601f820116820180604052508101906113f59190612c63565b611434576040517f08c379a000000000000000000000000000000000000000000000000000000000815260040161142b90613532565b60405180910390fd5b60003373ffffffffffffffffffffffffffffffffffffffff168360405161145a90613583565b60006040518083038185875af1925050503d8060008114611497576040519150601f19603f3d011682016040523d82523d6000602084013e61149c565b606091505b50509050806114e0576040517f08c379a00000000000000000000000000000000000000000000000000000000081526004016114d7906135e4565b60405180910390fd5b82600160003373ffffffffffffffffffffffffffffffffffffffff1673ffffffffffffffffffffffffffffffffffffffff168152602001908152602001600020600082825461152f9190613354565b9250508190555050505050565b6000600260008381526020019081526020016000206003015414611595576040517f08c379a000000000000000000000000000000000000000000000000000000000815260040161158c90612a69565b60405180910390fd5b3373ffffffffffffffffffffffffffffffffffffffff166002600083815260200190815260200160002060060160009054906101000a900473ffffffffffffffffffffffffffffffffffffffff1673ffffffffffffffffffffffffffffffffffffffff1614611639576040517f08c379a000000000000000000000000000000000000000000000000000000000815260040161163090612dd7565b60405180910390fd5b600015156003600083815260200190815260200160002060009054906101000a900460ff161515146116a0576040517f08c379a000000000000000000000000000000000000000000000000000000000815260040161169790612e69565b60405180910390fd5b6116a981611b13565b50565b60075481565b60006116bc6104b1565b826116c79190613312565b9050919050565b600080600260008481526020019081526020016000206003015414611728576040517f08c379a000000000000000000000000000000000000000000000000000000000815260040161171f90612a69565b60405180910390fd5b6002600083815260200190815260200160002060020154600560009054906101000a900473ffffffffffffffffffffffffffffffffffffffff1673ffffffffffffffffffffffffffffffffffffffff1663dd62ed3e33306040518363ffffffff1660e01b815260040161179c929190613388565b602060405180830381865afa1580156117b9573d6000803e3d6000fd5b505050506040513d601f19601f820116820180604052508101906117dd9190612fab565b101561181e576040517f08c379a0000000000000000000000000000000000000000000000000000000008152600401611815906133fd565b60405180910390fd5b600560009054906101000a900473ffffffffffffffffffffffffffffffffffffffff1673ffffffffffffffffffffffffffffffffffffffff166323b872dd333060026000878152602001908152602001600020600201546040518463ffffffff1660e01b8152600401611893939291906134af565b6020604051808303816000875af11580156118b2573d6000803e3d6000fd5b505050506040513d601f19601f820116820180604052508101906118d69190612c63565b611915576040517f08c379a000000000000000000000000000000000000000000000000000000000815260040161190c90613650565b60405180910390fd5b6000611922833342611f50565b905080915050919050565b60008054906101000a900473ffffffffffffffffffffffffffffffffffffffff1673ffffffffffffffffffffffffffffffffffffffff163373ffffffffffffffffffffffffffffffffffffffff16146119bb576040517f08c379a00000000000000000000000000000000000000000000000000000000081526004016119b2906129fd565b60405180910390fd5b600854811115611a00576040517f08c379a00000000000000000000000000000000000000000000000000000000081526004016119f7906136bc565b60405180910390fd5b60008060009054906101000a900473ffffffffffffffffffffffffffffffffffffffff1673ffffffffffffffffffffffffffffffffffffffff1682604051611a4790613583565b60006040518083038185875af1925050503d8060008114611a84576040519150601f19603f3d011682016040523d82523d6000602084013e611a89565b606091505b5050905080611acd576040517f08c379a0000000000000000000000000000000000000000000000000000000008152600401611ac4906135e4565b60405180910390fd5b5050565b600087878787878787604051602001611af09796959493929190613715565b604051602081830303815290604052805190602001209050979650505050505050565b6000600260008381526020019081526020016000206040518060e0016040529081600082018054611b4390612eb8565b80601f0160208091040260200160405190810160405280929190818152602001828054611b6f90612eb8565b8015611bbc5780601f10611b9157610100808354040283529160200191611bbc565b820191906000526020600020905b815481529060010190602001808311611b9f57829003601f168201915b50505050508152602001600182018054611bd590612eb8565b80601f0160208091040260200160405190810160405280929190818152602001828054611c0190612eb8565b8015611c4e5780601f10611c2357610100808354040283529160200191611c4e565b820191906000526020600020905b815481529060010190602001808311611c3157829003601f168201915b505050505081526020016002820154815260200160038201548152602001600482015481526020016005820160009054906101000a900473ffffffffffffffffffffffffffffffffffffffff1673ffffffffffffffffffffffffffffffffffffffff1673ffffffffffffffffffffffffffffffffffffffff1681526020016006820160009054906101000a900473ffffffffffffffffffffffffffffffffffffffff1673ffffffffffffffffffffffffffffffffffffffff1673ffffffffffffffffffffffffffffffffffffffff168152505090506000611d4a826000015183602001518460400151856060015160008760a001516000611ad1565b90506040518060e0016040528083600001518152602001836020015181526020018360400151815260200183606001518152602001600081526020018360a0015173ffffffffffffffffffffffffffffffffffffffff168152602001600073ffffffffffffffffffffffffffffffffffffffff16815250600260008381526020019081526020016000206000820151816000019081611de99190613240565b506020820151816001019081611dff9190613240565b5060408201518160020155606082015181600301556080820151816004015560a08201518160050160006101000a81548173ffffffffffffffffffffffffffffffffffffffff021916908373ffffffffffffffffffffffffffffffffffffffff16021790555060c08201518160060160006101000a81548173ffffffffffffffffffffffffffffffffffffffff021916908373ffffffffffffffffffffffffffffffffffffffff1602179055509050506002600084815260200190815260200160002060008082016000611ed391906123fa565b600182016000611ee391906123fa565b6002820160009055600382016000905560048201600090556005820160006101000a81549073ffffffffffffffffffffffffffffffffffffffff02191690556006820160006101000a81549073ffffffffffffffffffffffffffffffffffffffff02191690555050505050565b600080600260008681526020019081526020016000206040518060e0016040529081600082018054611f8190612eb8565b80601f0160208091040260200160405190810160405280929190818152602001828054611fad90612eb8565b8015611ffa5780601f10611fcf57610100808354040283529160200191611ffa565b820191906000526020600020905b815481529060010190602001808311611fdd57829003601f168201915b5050505050815260200160018201805461201390612eb8565b80601f016020809104026020016040519081016040528092919081815260200182805461203f90612eb8565b801561208c5780601f106120615761010080835404028352916020019161208c565b820191906000526020600020905b81548152906001019060200180831161206f57829003601f168201915b505050505081526020016002820154815260200160038201548152602001600482015481526020016005820160009054906101000a900473ffffffffffffffffffffffffffffffffffffffff1673ffffffffffffffffffffffffffffffffffffffff1673ffffffffffffffffffffffffffffffffffffffff1681526020016006820160009054906101000a900473ffffffffffffffffffffffffffffffffffffffff1673ffffffffffffffffffffffffffffffffffffffff1673ffffffffffffffffffffffffffffffffffffffff1681525050905060006121868260000151836020015184604001518560600151888760a001518b611ad1565b90506040518060e00160405280836000015181526020018360200151815260200183604001518152602001836060015181526020018581526020018360a0015173ffffffffffffffffffffffffffffffffffffffff1681526020018673ffffffffffffffffffffffffffffffffffffffff168152506002600083815260200190815260200160002060008201518160000190816122239190613240565b5060208201518160010190816122399190613240565b5060408201518160020155606082015181600301556080820151816004015560a08201518160050160006101000a81548173ffffffffffffffffffffffffffffffffffffffff021916908373ffffffffffffffffffffffffffffffffffffffff16021790555060c08201518160060160006101000a81548173ffffffffffffffffffffffffffffffffffffffff021916908373ffffffffffffffffffffffffffffffffffffffff160217905550905050600260008781526020019081526020016000206000808201600061230d91906123fa565b60018201600061231d91906123fa565b6002820160009055600382016000905560048201600090556005820160006101000a81549073ffffffffffffffffffffffffffffffffffffffff02191690556006820160006101000a81549073ffffffffffffffffffffffffffffffffffffffff0219169055505080925050509392505050565b6040518060e001604052806060815260200160608152602001600081526020016000815260200160008152602001600073ffffffffffffffffffffffffffffffffffffffff168152602001600073ffffffffffffffffffffffffffffffffffffffff1681525090565b50805461240690612eb8565b6000825580601f106124185750612437565b601f016020900490600052602060002090810190612436919061243a565b5b50565b5b8082111561245357600081600090555060010161243b565b5090565b6000819050919050565b61246a81612457565b82525050565b60006020820190506124856000830184612461565b92915050565b6000604051905090565b600080fd5b600080fd5b6124a881612457565b81146124b357600080fd5b50565b6000813590506124c58161249f565b92915050565b6000602082840312156124e1576124e0612495565b5b60006124ef848285016124b6565b91505092915050565b6000819050919050565b61250b816124f8565b811461251657600080fd5b50565b60008135905061252881612502565b92915050565b60006020828403121561254457612543612495565b5b600061255284828501612519565b91505092915050565b600081519050919050565b600082825260208201905092915050565b60005b8381101561259557808201518184015260208101905061257a565b60008484015250505050565b6000601f19601f8301169050919050565b60006125bd8261255b565b6125c78185612566565b93506125d7818560208601612577565b6125e0816125a1565b840191505092915050565b6125f481612457565b82525050565b600073ffffffffffffffffffffffffffffffffffffffff82169050919050565b6000612625826125fa565b9050919050565b6126358161261a565b82525050565b600060e083016000830151848203600086015261265882826125b2565b9150506020830151848203602086015261267282826125b2565b915050604083015161268760408601826125eb565b50606083015161269a60608601826125eb565b5060808301516126ad60808601826125eb565b5060a08301516126c060a086018261262c565b5060c08301516126d360c086018261262c565b508091505092915050565b600060208201905081810360008301526126f8818461263b565b905092915050565b600080fd5b600080fd5b7f4e487b7100000000000000000000000000000000000000000000000000000000600052604160045260246000fd5b612742826125a1565b810181811067ffffffffffffffff821117156127615761276061270a565b5b80604052505050565b600061277461248b565b90506127808282612739565b919050565b600067ffffffffffffffff8211156127a05761279f61270a565b5b6127a9826125a1565b9050602081019050919050565b82818337600083830152505050565b60006127d86127d384612785565b61276a565b9050828152602081018484840111156127f4576127f3612705565b5b6127ff8482856127b6565b509392505050565b600082601f83011261281c5761281b612700565b5b813561282c8482602086016127c5565b91505092915050565b60008060006060848603121561284e5761284d612495565b5b600084013567ffffffffffffffff81111561286c5761286b61249a565b5b61287886828701612807565b935050602084013567ffffffffffffffff8111156128995761289861249a565b5b6128a586828701612807565b92505060406128b6868287016124b6565b9150509250925092565b6000819050919050565b60006128e56128e06128db846125fa565b6128c0565b6125fa565b9050919050565b60006128f7826128ca565b9050919050565b6000612909826128ec565b9050919050565b612919816128fe565b82525050565b60006020820190506129346000830184612910565b92915050565b6000612945826125fa565b9050919050565b6129558161293a565b82525050565b6000602082019050612970600083018461294c565b92915050565b61297f816124f8565b82525050565b600060208201905061299a6000830184612976565b92915050565b600082825260208201905092915050565b7f4e6f74206f776e65720000000000000000000000000000000000000000000000600082015250565b60006129e76009836129a0565b91506129f2826129b1565b602082019050919050565b60006020820190508181036000830152612a16816129da565b9050919050565b7f4974656d20646f65736e27742065786973740000000000000000000000000000600082015250565b6000612a536012836129a0565b9150612a5e82612a1d565b602082019050919050565b60006020820190508181036000830152612a8281612a46565b9050919050565b7f596f7520617265206e6f742073656c6c65720000000000000000000000000000600082015250565b6000612abf6012836129a0565b9150612aca82612a89565b602082019050919050565b60006020820190508181036000830152612aee81612ab2565b9050919050565b7f53656c6c696e67206973206e6f7420636f6e6669726d6564206279206275796560008201527f7200000000000000000000000000000000000000000000000000000000000000602082015250565b6000612b516021836129a0565b9150612b5c82612af5565b604082019050919050565b60006020820190508181036000830152612b8081612b44565b9050919050565b7f436f6e6669726d2073656c6c696e672066697273740000000000000000000000600082015250565b6000612bbd6015836129a0565b9150612bc882612b87565b602082019050919050565b60006020820190508181036000830152612bec81612bb0565b9050919050565b612bfc8161261a565b82525050565b6000604082019050612c176000830185612bf3565b612c246020830184612461565b9392505050565b60008115159050919050565b612c4081612c2b565b8114612c4b57600080fd5b50565b600081519050612c5d81612c37565b92915050565b600060208284031215612c7957612c78612495565b5b6000612c8784828501612c4e565b91505092915050565b7f4d4e54207472616e73666572206572726f720000000000000000000000000000600082015250565b6000612cc66012836129a0565b9150612cd182612c90565b602082019050919050565b60006020820190508181036000830152612cf581612cb9565b9050919050565b7f4e487b7100000000000000000000000000000000000000000000000000000000600052601260045260246000fd5b7f4e487b7100000000000000000000000000000000000000000000000000000000600052601160045260246000fd5b6000612d6582612457565b9150612d7083612457565b925082612d8057612d7f612cfc565b5b828204905092915050565b7f596f7520617265206e6f74206275796572000000000000000000000000000000600082015250565b6000612dc16011836129a0565b9150612dcc82612d8b565b602082019050919050565b60006020820190508181036000830152612df081612db4565b9050919050565b7f4974656d2069736e27742077616974696e6720636f6e6669726d6174696f6e2060008201527f66726f6d20627579657200000000000000000000000000000000000000000000602082015250565b6000612e53602a836129a0565b9150612e5e82612df7565b604082019050919050565b60006020820190508181036000830152612e8281612e46565b9050919050565b7f4e487b7100000000000000000000000000000000000000000000000000000000600052602260045260246000fd5b60006002820490506001821680612ed057607f821691505b602082108103612ee357612ee2612e89565b5b50919050565b7f4974656d2069736e27742077616974696e6720636f6e6669726d6174696f6e2060008201527f66726f6d2073656c6c6572000000000000000000000000000000000000000000602082015250565b6000612f45602b836129a0565b9150612f5082612ee9565b604082019050919050565b60006020820190508181036000830152612f7481612f38565b9050919050565b6000602082019050612f906000830184612bf3565b92915050565b600081519050612fa58161249f565b92915050565b600060208284031215612fc157612fc0612495565b5b6000612fcf84828501612f96565b91505092915050565b7f496e73756666696369656e7420616d6f756e74206f66204d4e54206f6e20746860008201527f6520636f6e747261637421000000000000000000000000000000000000000000602082015250565b6000613034602b836129a0565b915061303f82612fd8565b604082019050919050565b6000602082019050818103600083015261306381613027565b9050919050565b600061307582612457565b915061308083612457565b925082820190508082111561309857613097612d2b565b5b92915050565b60008190508160005260206000209050919050565b60006020601f8301049050919050565b600082821b905092915050565b6000600883026131007fffffffffffffffffffffffffffffffffffffffffffffffffffffffffffffffff826130c3565b61310a86836130c3565b95508019841693508086168417925050509392505050565b600061313d61313861313384612457565b6128c0565b612457565b9050919050565b6000819050919050565b61315783613122565b61316b61316382613144565b8484546130d0565b825550505050565b600090565b613180613173565b61318b81848461314e565b505050565b5b818110156131af576131a4600082613178565b600181019050613191565b5050565b601f8211156131f4576131c58161309e565b6131ce846130b3565b810160208510156131dd578190505b6131f16131e9856130b3565b830182613190565b50505b505050565b600082821c905092915050565b6000613217600019846008026131f9565b1980831691505092915050565b60006132308383613206565b9150826002028217905092915050565b6132498261255b565b67ffffffffffffffff8111156132625761326161270a565b5b61326c8254612eb8565b6132778282856131b3565b600060209050601f8311600181146132aa5760008415613298578287015190505b6132a28582613224565b86555061330a565b601f1984166132b88661309e565b60005b828110156132e0578489015182556001820191506020850194506020810190506132bb565b868310156132fd57848901516132f9601f891682613206565b8355505b6001600288020188555050505b505050505050565b600061331d82612457565b915061332883612457565b925082820261333681612457565b9150828204841483151761334d5761334c612d2b565b5b5092915050565b600061335f82612457565b915061336a83612457565b925082820390508181111561338257613381612d2b565b5b92915050565b600060408201905061339d6000830185612bf3565b6133aa6020830184612bf3565b9392505050565b7f496e73756666696369656e7420636f6e747261637420616c6c6f77616e636500600082015250565b60006133e7601f836129a0565b91506133f2826133b1565b602082019050919050565b60006020820190508181036000830152613416816133da565b9050919050565b7f496e73756666696369656e7420616d6f756e74206f6620455448206f6e20746860008201527f6520636f6e747261637421000000000000000000000000000000000000000000602082015250565b6000613479602b836129a0565b91506134848261341d565b604082019050919050565b600060208201905081810360008301526134a88161346c565b9050919050565b60006060820190506134c46000830186612bf3565b6134d16020830185612bf3565b6134de6040830184612461565b949350505050565b7f4d4e54207472616e73666572206572726f722100000000000000000000000000600082015250565b600061351c6013836129a0565b9150613527826134e6565b602082019050919050565b6000602082019050818103600083015261354b8161350f565b9050919050565b600081905092915050565b50565b600061356d600083613552565b91506135788261355d565b600082019050919050565b600061358e82613560565b9150819050919050565b7f455448207472616e73666572206572726f722100000000000000000000000000600082015250565b60006135ce6013836129a0565b91506135d982613598565b602082019050919050565b600060208201905081810360008301526135fd816135c1565b9050919050565b7f546f6b656e207472616e7366657220746f20636f6e7472616374206572726f72600082015250565b600061363a6020836129a0565b915061364582613604565b602082019050919050565b600060208201905081810360008301526136698161362d565b9050919050565b7f4e6f7420656e6f75676820657468657220746f207472616e7366657200000000600082015250565b60006136a6601c836129a0565b91506136b182613670565b602082019050919050565b600060208201905081810360008301526136d581613699565b9050919050565b60006136e78261255b565b6136f181856129a0565b9350613701818560208601612577565b61370a816125a1565b840191505092915050565b600060e082019050818103600083015261372f818a6136dc565b9050818103602083015261374381896136dc565b90506137526040830188612461565b61375f6060830187612461565b61376c6080830186612461565b61377960a0830185612bf3565b61378660c0830184612bf3565b9897505050505050505056fea26469706673582212203514dc3beded223406e5988bedb008d9efd8cf51dd8d35df3e170594b9dffaa564736f6c6343000811003360806040523480156200001157600080fd5b5060405162001d3d38038062001d3d833981810160405281019062000037919062000427565b818381600390816200004a91906200070c565b5080600490816200005c91906200070c565b505050600062000071620000af60201b60201c565b60ff16600a62000082919062000976565b6103e8620000919190620009c7565b9050620000a58282620000b860201b60201c565b5050505062000afe565b60006012905090565b600073ffffffffffffffffffffffffffffffffffffffff168273ffffffffffffffffffffffffffffffffffffffff16036200012a576040517f08c379a0000000000000000000000000000000000000000000000000000000008152600401620001219062000a73565b60405180910390fd5b6200013e600083836200022560201b60201c565b806002600082825462000152919062000a95565b92505081905550806000808473ffffffffffffffffffffffffffffffffffffffff1673ffffffffffffffffffffffffffffffffffffffff168152602001908152602001600020600082825401925050819055508173ffffffffffffffffffffffffffffffffffffffff16600073ffffffffffffffffffffffffffffffffffffffff167fddf252ad1be2c89b69c2b068fc378daa952ba7f163c4a11628f55a4df523b3ef8360405162000205919062000ae1565b60405180910390a362000221600083836200022a60201b60201c565b5050565b505050565b505050565b6000604051905090565b600080fd5b600080fd5b600080fd5b600080fd5b6000601f19601f8301169050919050565b7f4e487b7100000000000000000000000000000000000000000000000000000000600052604160045260246000fd5b62000298826200024d565b810181811067ffffffffffffffff82111715620002ba57620002b96200025e565b5b80604052505050565b6000620002cf6200022f565b9050620002dd82826200028d565b919050565b600067ffffffffffffffff8211156200030057620002ff6200025e565b5b6200030b826200024d565b9050602081019050919050565b60005b83811015620003385780820151818401526020810190506200031b565b60008484015250505050565b60006200035b6200035584620002e2565b620002c3565b9050828152602081018484840111156200037a576200037962000248565b5b6200038784828562000318565b509392505050565b600082601f830112620003a757620003a662000243565b5b8151620003b984826020860162000344565b91505092915050565b600073ffffffffffffffffffffffffffffffffffffffff82169050919050565b6000620003ef82620003c2565b9050919050565b6200040181620003e2565b81146200040d57600080fd5b50565b6000815190506200042181620003f6565b92915050565b60008060006060848603121562000443576200044262000239565b5b600084015167ffffffffffffffff8111156200046457620004636200023e565b5b62000472868287016200038f565b935050602084015167ffffffffffffffff8111156200049657620004956200023e565b5b620004a4868287016200038f565b9250506040620004b78682870162000410565b9150509250925092565b600081519050919050565b7f4e487b7100000000000000000000000000000000000000000000000000000000600052602260045260246000fd5b600060028204905060018216806200051457607f821691505b6020821081036200052a5762000529620004cc565b5b50919050565b60008190508160005260206000209050919050565b60006020601f8301049050919050565b600082821b905092915050565b600060088302620005947fffffffffffffffffffffffffffffffffffffffffffffffffffffffffffffffff8262000555565b620005a0868362000555565b95508019841693508086168417925050509392505050565b6000819050919050565b6000819050919050565b6000620005ed620005e7620005e184620005b8565b620005c2565b620005b8565b9050919050565b6000819050919050565b6200060983620005cc565b620006216200061882620005f4565b84845462000562565b825550505050565b600090565b6200063862000629565b62000645818484620005fe565b505050565b5b818110156200066d57620006616000826200062e565b6001810190506200064b565b5050565b601f821115620006bc57620006868162000530565b620006918462000545565b81016020851015620006a1578190505b620006b9620006b08562000545565b8301826200064a565b50505b505050565b600082821c905092915050565b6000620006e160001984600802620006c1565b1980831691505092915050565b6000620006fc8383620006ce565b9150826002028217905092915050565b6200071782620004c1565b67ffffffffffffffff8111156200073357620007326200025e565b5b6200073f8254620004fb565b6200074c82828562000671565b600060209050601f8311600181146200078457600084156200076f578287015190505b6200077b8582620006ee565b865550620007eb565b601f198416620007948662000530565b60005b82811015620007be5784890151825560018201915060208501945060208101905062000797565b86831015620007de5784890151620007da601f891682620006ce565b8355505b6001600288020188555050505b505050505050565b7f4e487b7100000000000000000000000000000000000000000000000000000000600052601160045260246000fd5b60008160011c9050919050565b6000808291508390505b60018511156200088157808604811115620008595762000858620007f3565b5b6001851615620008695780820291505b8081029050620008798562000822565b945062000839565b94509492505050565b6000826200089c57600190506200096f565b81620008ac57600090506200096f565b8160018114620008c55760028114620008d05762000906565b60019150506200096f565b60ff841115620008e557620008e4620007f3565b5b8360020a915084821115620008ff57620008fe620007f3565b5b506200096f565b5060208310610133831016604e8410600b8410161715620009405782820a9050838111156200093a5762000939620007f3565b5b6200096f565b6200094f84848460016200082f565b92509050818404811115620009695762000968620007f3565b5b81810290505b9392505050565b60006200098382620005b8565b91506200099083620005b8565b9250620009bf7fffffffffffffffffffffffffffffffffffffffffffffffffffffffffffffffff84846200088a565b905092915050565b6000620009d482620005b8565b9150620009e183620005b8565b9250828202620009f181620005b8565b9150828204841483151762000a0b5762000a0a620007f3565b5b5092915050565b600082825260208201905092915050565b7f45524332303a206d696e7420746f20746865207a65726f206164647265737300600082015250565b600062000a5b601f8362000a12565b915062000a688262000a23565b602082019050919050565b6000602082019050818103600083015262000a8e8162000a4c565b9050919050565b600062000aa282620005b8565b915062000aaf83620005b8565b925082820190508082111562000aca5762000ac9620007f3565b5b92915050565b62000adb81620005b8565b82525050565b600060208201905062000af8600083018462000ad0565b92915050565b61122f8062000b0e6000396000f3fe608060405234801561001057600080fd5b50600436106100a95760003560e01c80633950935111610071578063395093511461016857806370a082311461019857806395d89b41146101c8578063a457c2d7146101e6578063a9059cbb14610216578063dd62ed3e14610246576100a9565b806306fdde03146100ae578063095ea7b3146100cc57806318160ddd146100fc57806323b872dd1461011a578063313ce5671461014a575b600080fd5b6100b6610276565b6040516100c39190610b0c565b60405180910390f35b6100e660048036038101906100e19190610bc7565b610308565b6040516100f39190610c22565b60405180910390f35b61010461032b565b6040516101119190610c4c565b60405180910390f35b610134600480360381019061012f9190610c67565b610335565b6040516101419190610c22565b60405180910390f35b610152610364565b60405161015f9190610cd6565b60405180910390f35b610182600480360381019061017d9190610bc7565b61036d565b60405161018f9190610c22565b60405180910390f35b6101b260048036038101906101ad9190610cf1565b6103a4565b6040516101bf9190610c4c565b60405180910390f35b6101d06103ec565b6040516101dd9190610b0c565b60405180910390f35b61020060048036038101906101fb9190610bc7565b61047e565b60405161020d9190610c22565b60405180910390f35b610230600480360381019061022b9190610bc7565b6104f5565b60405161023d9190610c22565b60405180910390f35b610260600480360381019061025b9190610d1e565b610518565b60405161026d9190610c4c565b60405180910390f35b60606003805461028590610d8d565b80601f01602080910402602001604051908101604052809291908181526020018280546102b190610d8d565b80156102fe5780601f106102d3576101008083540402835291602001916102fe565b820191906000526020600020905b8154815290600101906020018083116102e157829003601f168201915b5050505050905090565b60008061031361059f565b90506103208185856105a7565b600191505092915050565b6000600254905090565b60008061034061059f565b905061034d858285610770565b6103588585856107fc565b60019150509392505050565b60006012905090565b60008061037861059f565b905061039981858561038a8589610518565b6103949190610ded565b6105a7565b600191505092915050565b60008060008373ffffffffffffffffffffffffffffffffffffffff1673ffffffffffffffffffffffffffffffffffffffff168152602001908152602001600020549050919050565b6060600480546103fb90610d8d565b80601f016020809104026020016040519081016040528092919081815260200182805461042790610d8d565b80156104745780601f1061044957610100808354040283529160200191610474565b820191906000526020600020905b81548152906001019060200180831161045757829003601f168201915b5050505050905090565b60008061048961059f565b905060006104978286610518565b9050838110156104dc576040517f08c379a00000000000000000000000000000000000000000000000000000000081526004016104d390610e93565b60405180910390fd5b6104e982868684036105a7565b60019250505092915050565b60008061050061059f565b905061050d8185856107fc565b600191505092915050565b6000600160008473ffffffffffffffffffffffffffffffffffffffff1673ffffffffffffffffffffffffffffffffffffffff16815260200190815260200160002060008373ffffffffffffffffffffffffffffffffffffffff1673ffffffffffffffffffffffffffffffffffffffff16815260200190815260200160002054905092915050565b600033905090565b600073ffffffffffffffffffffffffffffffffffffffff168373ffffffffffffffffffffffffffffffffffffffff1603610616576040517f08c379a000000000000000000000000000000000000000000000000000000000815260040161060d90610f25565b60405180910390fd5b600073ffffffffffffffffffffffffffffffffffffffff168273ffffffffffffffffffffffffffffffffffffffff1603610685576040517f08c379a000000000000000000000000000000000000000000000000000000000815260040161067c90610fb7565b60405180910390fd5b80600160008573ffffffffffffffffffffffffffffffffffffffff1673ffffffffffffffffffffffffffffffffffffffff16815260200190815260200160002060008473ffffffffffffffffffffffffffffffffffffffff1673ffffffffffffffffffffffffffffffffffffffff168152602001908152602001600020819055508173ffffffffffffffffffffffffffffffffffffffff168373ffffffffffffffffffffffffffffffffffffffff167f8c5be1e5ebec7d5bd14f71427d1e84f3dd0314c0f7b2291e5b200ac8c7c3b925836040516107639190610c4c565b60405180910390a3505050565b600061077c8484610518565b90507fffffffffffffffffffffffffffffffffffffffffffffffffffffffffffffffff81146107f657818110156107e8576040517f08c379a00000000000000000000000000000000000000000000000000000000081526004016107df90611023565b60405180910390fd5b6107f584848484036105a7565b5b50505050565b600073ffffffffffffffffffffffffffffffffffffffff168373ffffffffffffffffffffffffffffffffffffffff160361086b576040517f08c379a0000000000000000000000000000000000000000000000000000000008152600401610862906110b5565b60405180910390fd5b600073ffffffffffffffffffffffffffffffffffffffff168273ffffffffffffffffffffffffffffffffffffffff16036108da576040517f08c379a00000000000000000000000000000000000000000000000000000000081526004016108d190611147565b60405180910390fd5b6108e5838383610a72565b60008060008573ffffffffffffffffffffffffffffffffffffffff1673ffffffffffffffffffffffffffffffffffffffff1681526020019081526020016000205490508181101561096b576040517f08c379a0000000000000000000000000000000000000000000000000000000008152600401610962906111d9565b60405180910390fd5b8181036000808673ffffffffffffffffffffffffffffffffffffffff1673ffffffffffffffffffffffffffffffffffffffff16815260200190815260200160002081905550816000808573ffffffffffffffffffffffffffffffffffffffff1673ffffffffffffffffffffffffffffffffffffffff168152602001908152602001600020600082825401925050819055508273ffffffffffffffffffffffffffffffffffffffff168473ffffffffffffffffffffffffffffffffffffffff167fddf252ad1be2c89b69c2b068fc378daa952ba7f163c4a11628f55a4df523b3ef84604051610a599190610c4c565b60405180910390a3610a6c848484610a77565b50505050565b505050565b505050565b600081519050919050565b600082825260208201905092915050565b60005b83811015610ab6578082015181840152602081019050610a9b565b60008484015250505050565b6000601f19601f8301169050919050565b6000610ade82610a7c565b610ae88185610a87565b9350610af8818560208601610a98565b610b0181610ac2565b840191505092915050565b60006020820190508181036000830152610b268184610ad3565b905092915050565b600080fd5b600073ffffffffffffffffffffffffffffffffffffffff82169050919050565b6000610b5e82610b33565b9050919050565b610b6e81610b53565b8114610b7957600080fd5b50565b600081359050610b8b81610b65565b92915050565b6000819050919050565b610ba481610b91565b8114610baf57600080fd5b50565b600081359050610bc181610b9b565b92915050565b60008060408385031215610bde57610bdd610b2e565b5b6000610bec85828601610b7c565b9250506020610bfd85828601610bb2565b9150509250929050565b60008115159050919050565b610c1c81610c07565b82525050565b6000602082019050610c376000830184610c13565b92915050565b610c4681610b91565b82525050565b6000602082019050610c616000830184610c3d565b92915050565b600080600060608486031215610c8057610c7f610b2e565b5b6000610c8e86828701610b7c565b9350506020610c9f86828701610b7c565b9250506040610cb086828701610bb2565b9150509250925092565b600060ff82169050919050565b610cd081610cba565b82525050565b6000602082019050610ceb6000830184610cc7565b92915050565b600060208284031215610d0757610d06610b2e565b5b6000610d1584828501610b7c565b91505092915050565b60008060408385031215610d3557610d34610b2e565b5b6000610d4385828601610b7c565b9250506020610d5485828601610b7c565b9150509250929050565b7f4e487b7100000000000000000000000000000000000000000000000000000000600052602260045260246000fd5b60006002820490506001821680610da557607f821691505b602082108103610db857610db7610d5e565b5b50919050565b7f4e487b7100000000000000000000000000000000000000000000000000000000600052601160045260246000fd5b6000610df882610b91565b9150610e0383610b91565b9250828201905080821115610e1b57610e1a610dbe565b5b92915050565b7f45524332303a2064656372656173656420616c6c6f77616e63652062656c6f7760008201527f207a65726f000000000000000000000000000000000000000000000000000000602082015250565b6000610e7d602583610a87565b9150610e8882610e21565b604082019050919050565b60006020820190508181036000830152610eac81610e70565b9050919050565b7f45524332303a20617070726f76652066726f6d20746865207a65726f2061646460008201527f7265737300000000000000000000000000000000000000000000000000000000602082015250565b6000610f0f602483610a87565b9150610f1a82610eb3565b604082019050919050565b60006020820190508181036000830152610f3e81610f02565b9050919050565b7f45524332303a20617070726f766520746f20746865207a65726f20616464726560008201527f7373000000000000000000000000000000000000000000000000000000000000602082015250565b6000610fa1602283610a87565b9150610fac82610f45565b604082019050919050565b60006020820190508181036000830152610fd081610f94565b9050919050565b7f45524332303a20696e73756666696369656e7420616c6c6f77616e6365000000600082015250565b600061100d601d83610a87565b915061101882610fd7565b602082019050919050565b6000602082019050818103600083015261103c81611000565b9050919050565b7f45524332303a207472616e736665722066726f6d20746865207a65726f20616460008201527f6472657373000000000000000000000000000000000000000000000000000000602082015250565b600061109f602583610a87565b91506110aa82611043565b604082019050919050565b600060208201905081810360008301526110ce81611092565b9050919050565b7f45524332303a207472616e7366657220746f20746865207a65726f206164647260008201527f6573730000000000000000000000000000000000000000000000000000000000602082015250565b6000611131602383610a87565b915061113c826110d5565b604082019050919050565b6000602082019050818103600083015261116081611124565b9050919050565b7f45524332303a207472616e7366657220616d6f756e742065786365656473206260008201527f616c616e63650000000000000000000000000000000000000000000000000000602082015250565b60006111c3602683610a87565b91506111ce82611167565b604082019050919050565b600060208201905081810360008301526111f2816111b6565b905091905056fea2646970667358221220a22ffb96f252c2e30c29b74f1484b176a9f6aab09af6192d2446aaa18d740aab64736f6c63430008110033",
  "linkReferences": {},
  "deployedLinkReferences": {}
}