{
  "_format": "hh-sol-artifact-1",
  "contractName": "Market",
  "sourceName": "contracts/Market.sol",
  "abi": [
    {
      "inputs": [],
      "stateMutability": "payable",
      "type": "constructor"
    },
    {
      "anonymous": false,
      "inputs": [
        {
          "indexed": true,
          "internalType": "address",
          "name": "_by",
          "type": "address"
        },
        {
          "indexed": true,
          "internalType": "bytes32",
          "name": "_hash",
          "type": "bytes32"
        }
      ],
      "name": "ItemAdded",
      "type": "event"
    },
    {
      "inputs": [
        {
          "internalType": "uint256",
          "name": "amount",
          "type": "uint256"
        }
      ],
      "name": "ETH2MNT",
      "outputs": [
        {
          "internalType": "uint256",
          "name": "",
          "type": "uint256"
        }
      ],
      "stateMutability": "view",
      "type": "function"
    },
    {
      "inputs": [],
      "name": "MNT",
      "outputs": [
        {
          "internalType": "contract IERC20",
          "name": "",
          "type": "address"
        }
      ],
      "stateMutability": "view",
      "type": "function"
    },
    {
      "inputs": [
        {
          "internalType": "uint256",
          "name": "amount",
          "type": "uint256"
        }
      ],
      "name": "MNT2ETH",
      "outputs": [
        {
          "internalType": "uint256",
          "name": "",
          "type": "uint256"
        }
      ],
      "stateMutability": "view",
      "type": "function"
    },
    {
      "inputs": [],
      "name": "MNTPrice",
      "outputs": [
        {
          "internalType": "uint256",
          "name": "",
          "type": "uint256"
        }
      ],
      "stateMutability": "view",
      "type": "function"
    },
    {
      "inputs": [
        {
          "internalType": "string",
          "name": "name_",
          "type": "string"
        },
        {
          "internalType": "string",
          "name": "description_",
          "type": "string"
        },
        {
          "internalType": "uint256",
          "name": "price_",
          "type": "uint256"
        }
      ],
      "name": "addItem",
      "outputs": [],
      "stateMutability": "nonpayable",
      "type": "function"
    },
    {
      "inputs": [
        {
          "internalType": "address",
          "name": "",
          "type": "address"
        }
      ],
      "name": "amountOfSwappedEther",
      "outputs": [
        {
          "internalType": "uint256",
          "name": "",
          "type": "uint256"
        }
      ],
      "stateMutability": "view",
      "type": "function"
    },
    {
      "inputs": [
        {
          "internalType": "bytes32",
          "name": "hash",
          "type": "bytes32"
        }
      ],
      "name": "buyItem",
      "outputs": [
        {
          "internalType": "bytes32",
          "name": "",
          "type": "bytes32"
        }
      ],
      "stateMutability": "nonpayable",
      "type": "function"
    },
    {
      "inputs": [],
      "name": "buyMNT",
      "outputs": [],
      "stateMutability": "payable",
      "type": "function"
    },
    {
      "inputs": [
        {
          "internalType": "bytes32",
          "name": "hash",
          "type": "bytes32"
        }
      ],
      "name": "cancelBuying",
      "outputs": [],
      "stateMutability": "nonpayable",
      "type": "function"
    },
    {
      "inputs": [
        {
          "internalType": "uint256",
          "name": "amount",
          "type": "uint256"
        }
      ],
      "name": "claimContractFee",
      "outputs": [],
      "stateMutability": "payable",
      "type": "function"
    },
    {
      "inputs": [
        {
          "internalType": "bytes32",
          "name": "hash",
          "type": "bytes32"
        }
      ],
      "name": "claimFrozenCNT",
      "outputs": [],
      "stateMutability": "nonpayable",
      "type": "function"
    },
    {
      "inputs": [
        {
          "internalType": "bytes32",
          "name": "hash",
          "type": "bytes32"
        }
      ],
      "name": "confirmBuying",
      "outputs": [],
      "stateMutability": "nonpayable",
      "type": "function"
    },
    {
      "inputs": [
        {
          "internalType": "bytes32",
          "name": "hash",
          "type": "bytes32"
        }
      ],
      "name": "confirmSelling",
      "outputs": [],
      "stateMutability": "nonpayable",
      "type": "function"
    },
    {
      "inputs": [],
      "name": "contractFee",
      "outputs": [
        {
          "internalType": "uint256",
          "name": "",
          "type": "uint256"
        }
      ],
      "stateMutability": "view",
      "type": "function"
    },
    {
      "inputs": [],
      "name": "contractFeeSum",
      "outputs": [
        {
          "internalType": "uint256",
          "name": "",
          "type": "uint256"
        }
      ],
      "stateMutability": "view",
      "type": "function"
    },
    {
      "inputs": [],
      "name": "getContractFee",
      "outputs": [
        {
          "internalType": "uint256",
          "name": "",
          "type": "uint256"
        }
      ],
      "stateMutability": "view",
      "type": "function"
    },
    {
      "inputs": [
        {
          "internalType": "bytes32",
          "name": "hash",
          "type": "bytes32"
        }
      ],
      "name": "getItemByHash",
      "outputs": [
        {
          "components": [
            {
              "internalType": "string",
              "name": "name",
              "type": "string"
            },
            {
              "internalType": "string",
              "name": "description",
              "type": "string"
            },
            {
              "internalType": "uint256",
              "name": "price",
              "type": "uint256"
            },
            {
              "internalType": "uint256",
              "name": "timeCreated",
              "type": "uint256"
            },
            {
              "internalType": "uint256",
              "name": "timeSold",
              "type": "uint256"
            },
            {
              "internalType": "address",
              "name": "seller",
              "type": "address"
            },
            {
              "internalType": "address",
              "name": "buyer",
              "type": "address"
            }
          ],
          "internalType": "struct Market.Item",
          "name": "",
          "type": "tuple"
        }
      ],
      "stateMutability": "view",
      "type": "function"
    },
    {
      "inputs": [],
      "name": "getMNTPrice",
      "outputs": [
        {
          "internalType": "uint256",
          "name": "",
          "type": "uint256"
        }
      ],
      "stateMutability": "view",
      "type": "function"
    },
    {
      "inputs": [
        {
          "internalType": "bytes32",
          "name": "",
          "type": "bytes32"
        }
      ],
      "name": "hash2Item",
      "outputs": [
        {
          "internalType": "string",
          "name": "name",
          "type": "string"
        },
        {
          "internalType": "string",
          "name": "description",
          "type": "string"
        },
        {
          "internalType": "uint256",
          "name": "price",
          "type": "uint256"
        },
        {
          "internalType": "uint256",
          "name": "timeCreated",
          "type": "uint256"
        },
        {
          "internalType": "uint256",
          "name": "timeSold",
          "type": "uint256"
        },
        {
          "internalType": "address",
          "name": "seller",
          "type": "address"
        },
        {
          "internalType": "address",
          "name": "buyer",
          "type": "address"
        }
      ],
      "stateMutability": "view",
      "type": "function"
    },
    {
      "inputs": [],
      "name": "owner",
      "outputs": [
        {
          "internalType": "address payable",
          "name": "",
          "type": "address"
        }
      ],
      "stateMutability": "view",
      "type": "function"
    },
    {
      "inputs": [
        {
          "internalType": "uint256",
          "name": "amount",
          "type": "uint256"
        }
      ],
      "name": "sellMNT",
      "outputs": [],
      "stateMutability": "payable",
      "type": "function"
    },
    {
      "inputs": [
        {
          "internalType": "uint256",
          "name": "comission",
          "type": "uint256"
        }
      ],
      "name": "setContractFee",
      "outputs": [],
      "stateMutability": "nonpayable",
      "type": "function"
    },
    {
      "inputs": [
        {
          "internalType": "uint256",
          "name": "price",
          "type": "uint256"
        }
      ],
      "name": "setMNTPrice",
      "outputs": [],
      "stateMutability": "nonpayable",
      "type": "function"
    }
  ],
  "bytecode": "0x6080604052600160065560006007556000600855336000806101000a81548173ffffffffffffffffffffffffffffffffffffffff021916908373ffffffffffffffffffffffffffffffffffffffff160217905550306040516200006290620000d2565b6200006e9190620001d6565b604051809103906000f0801580156200008b573d6000803e3d6000fd5b50600560006101000a81548173ffffffffffffffffffffffffffffffffffffffff021916908373ffffffffffffffffffffffffffffffffffffffff1602179055506200021d565b611d3d8062003cd283390190565b600082825260208201905092915050565b7f4d4e540000000000000000000000000000000000000000000000000000000000600082015250565b600062000129600383620000e0565b91506200013682620000f1565b602082019050919050565b7f4d61726b65744e6174697665546f6b656e000000000000000000000000000000600082015250565b600062000179601183620000e0565b9150620001868262000141565b602082019050919050565b600073ffffffffffffffffffffffffffffffffffffffff82169050919050565b6000620001be8262000191565b9050919050565b620001d081620001b1565b82525050565b60006060820190508181036000830152620001f1816200011a565b9050818103602083015262000206816200016a565b9050620002176040830184620001c5565b92915050565b613aa5806200022d6000396000f3fe6080604052600436106101405760003560e01c806364432eb8116100b6578063b79da2b41161006f578063b79da2b414610441578063c15688af1461045d578063d41977cd14610486578063e148ad84146104b1578063f169bf07146104ee578063fe18cc501461052b57610140565b806364432eb81461032f578063720099fe146103585780637d0182da146103835780638ab91681146103ae5780638da5cb5b146103eb578063917c43c51461041657610140565b806321ce2f691161010857806321ce2f691461022a578063234780a71461025357806328b4edc01461029057806343123c54146102b95780634aa67d31146102fc5780634b3e84a81461032557610140565b806308b7e50414610145578063139d931b146101705780631a74194d1461019b5780631cde8f38146101c45780631e33f67e146101ed575b600080fd5b34801561015157600080fd5b5061015a610547565b60405161016791906126f4565b60405180910390f35b34801561017c57600080fd5b50610185610551565b60405161019291906126f4565b60405180910390f35b3480156101a757600080fd5b506101c260048036038101906101bd919061274f565b610557565b005b3480156101d057600080fd5b506101eb60048036038101906101e691906127b2565b6105ef565b005b3480156101f957600080fd5b50610214600480360381019061020f919061274f565b6108a4565b60405161022191906126f4565b60405180910390f35b34801561023657600080fd5b50610251600480360381019061024c91906127b2565b6108c0565b005b34801561025f57600080fd5b5061027a600480360381019061027591906127b2565b610a53565b6040516102879190612962565b60405180910390f35b34801561029c57600080fd5b506102b760048036038101906102b291906127b2565b610c6e565b005b3480156102c557600080fd5b506102e060048036038101906102db91906127b2565b610e01565b6040516102f397969594939291906129dd565b60405180910390f35b34801561030857600080fd5b50610323600480360381019061031e919061274f565b610f93565b005b61032d61102b565b005b34801561033b57600080fd5b5061035660048036038101906103519190612b8f565b61124e565b005b34801561036457600080fd5b5061036d6113fc565b60405161037a9190612c79565b60405180910390f35b34801561038f57600080fd5b50610398611422565b6040516103a591906126f4565b60405180910390f35b3480156103ba57600080fd5b506103d560048036038101906103d09190612cc0565b611428565b6040516103e291906126f4565b60405180910390f35b3480156103f757600080fd5b50610400611440565b60405161040d9190612d0e565b60405180910390f35b34801561042257600080fd5b5061042b611464565b60405161043891906126f4565b60405180910390f35b61045b6004803603810190610456919061274f565b61146e565b005b34801561046957600080fd5b50610484600480360381019061047f91906127b2565b6117c0565b005b34801561049257600080fd5b5061049b611930565b6040516104a891906126f4565b60405180910390f35b3480156104bd57600080fd5b506104d860048036038101906104d3919061274f565b611936565b6040516104e591906126f4565b60405180910390f35b3480156104fa57600080fd5b50610515600480360381019061051091906127b2565b611952565b6040516105229190612d38565b60405180910390f35b6105456004803603810190610540919061274f565b611bb1565b005b6000600654905090565b60065481565b60008054906101000a900473ffffffffffffffffffffffffffffffffffffffff1673ffffffffffffffffffffffffffffffffffffffff163373ffffffffffffffffffffffffffffffffffffffff16146105e5576040517f08c379a00000000000000000000000000000000000000000000000000000000081526004016105dc90612d9f565b60405180910390fd5b8060068190555050565b6000600260008381526020019081526020016000206003015414610648576040517f08c379a000000000000000000000000000000000000000000000000000000000815260040161063f90612e0b565b60405180910390fd5b3373ffffffffffffffffffffffffffffffffffffffff166002600083815260200190815260200160002060050160009054906101000a900473ffffffffffffffffffffffffffffffffffffffff1673ffffffffffffffffffffffffffffffffffffffff16146106ec576040517f08c379a00000000000000000000000000000000000000000000000000000000081526004016106e390612e77565b60405180910390fd5b6004600082815260200190815260200160002060009054906101000a900460ff1661074c576040517f08c379a000000000000000000000000000000000000000000000000000000000815260040161074390612f09565b60405180910390fd5b6003600082815260200190815260200160002060009054906101000a900460ff166107ac576040517f08c379a00000000000000000000000000000000000000000000000000000000081526004016107a390612f75565b60405180910390fd5b600560009054906101000a900473ffffffffffffffffffffffffffffffffffffffff1673ffffffffffffffffffffffffffffffffffffffff1663a9059cbb3360026000858152602001908152602001600020600201546040518363ffffffff1660e01b815260040161081f929190612f95565b6020604051808303816000875af115801561083e573d6000803e3d6000fd5b505050506040513d601f19601f820116820180604052508101906108629190612ff6565b6108a1576040517f08c379a00000000000000000000000000000000000000000000000000000000081526004016108989061306f565b60405180910390fd5b50565b60006108ae610547565b826108b991906130ed565b9050919050565b6000600260008381526020019081526020016000206003015414610919576040517f08c379a000000000000000000000000000000000000000000000000000000000815260040161091090612e0b565b60405180910390fd5b3373ffffffffffffffffffffffffffffffffffffffff166002600083815260200190815260200160002060060160009054906101000a900473ffffffffffffffffffffffffffffffffffffffff1673ffffffffffffffffffffffffffffffffffffffff16146109bd576040517f08c379a00000000000000000000000000000000000000000000000000000000081526004016109b49061316a565b60405180910390fd5b600015156004600083815260200190815260200160002060009054906101000a900460ff16151514610a24576040517f08c379a0000000000000000000000000000000000000000000000000000000008152600401610a1b906131fc565b60405180910390fd5b60016004600083815260200190815260200160002060006101000a81548160ff02191690831515021790555050565b610a5b612615565b600260008381526020019081526020016000206040518060e0016040529081600082018054610a899061324b565b80601f0160208091040260200160405190810160405280929190818152602001828054610ab59061324b565b8015610b025780601f10610ad757610100808354040283529160200191610b02565b820191906000526020600020905b815481529060010190602001808311610ae557829003601f168201915b50505050508152602001600182018054610b1b9061324b565b80601f0160208091040260200160405190810160405280929190818152602001828054610b479061324b565b8015610b945780601f10610b6957610100808354040283529160200191610b94565b820191906000526020600020905b815481529060010190602001808311610b7757829003601f168201915b505050505081526020016002820154815260200160038201548152602001600482015481526020016005820160009054906101000a900473ffffffffffffffffffffffffffffffffffffffff1673ffffffffffffffffffffffffffffffffffffffff1673ffffffffffffffffffffffffffffffffffffffff1681526020016006820160009054906101000a900473ffffffffffffffffffffffffffffffffffffffff1673ffffffffffffffffffffffffffffffffffffffff1673ffffffffffffffffffffffffffffffffffffffff16815250509050919050565b6000600260008381526020019081526020016000206003015414610cc7576040517f08c379a0000000000000000000000000000000000000000000000000000000008152600401610cbe90612e0b565b60405180910390fd5b3373ffffffffffffffffffffffffffffffffffffffff166002600083815260200190815260200160002060050160009054906101000a900473ffffffffffffffffffffffffffffffffffffffff1673ffffffffffffffffffffffffffffffffffffffff1614610d6b576040517f08c379a0000000000000000000000000000000000000000000000000000000008152600401610d6290612e77565b60405180910390fd5b600015156003600083815260200190815260200160002060009054906101000a900460ff16151514610dd2576040517f08c379a0000000000000000000000000000000000000000000000000000000008152600401610dc9906132ee565b60405180910390fd5b60016003600083815260200190815260200160002060006101000a81548160ff02191690831515021790555050565b6002602052806000526040600020600091509050806000018054610e249061324b565b80601f0160208091040260200160405190810160405280929190818152602001828054610e509061324b565b8015610e9d5780601f10610e7257610100808354040283529160200191610e9d565b820191906000526020600020905b815481529060010190602001808311610e8057829003601f168201915b505050505090806001018054610eb29061324b565b80601f0160208091040260200160405190810160405280929190818152602001828054610ede9061324b565b8015610f2b5780601f10610f0057610100808354040283529160200191610f2b565b820191906000526020600020905b815481529060010190602001808311610f0e57829003601f168201915b5050505050908060020154908060030154908060040154908060050160009054906101000a900473ffffffffffffffffffffffffffffffffffffffff16908060060160009054906101000a900473ffffffffffffffffffffffffffffffffffffffff16905087565b60008054906101000a900473ffffffffffffffffffffffffffffffffffffffff1673ffffffffffffffffffffffffffffffffffffffff163373ffffffffffffffffffffffffffffffffffffffff1614611021576040517f08c379a000000000000000000000000000000000000000000000000000000000815260040161101890612d9f565b60405180910390fd5b8060078190555050565b600061103634611936565b9050600560009054906101000a900473ffffffffffffffffffffffffffffffffffffffff1673ffffffffffffffffffffffffffffffffffffffff166370a08231306040518263ffffffff1660e01b8152600401611093919061330e565b602060405180830381865afa1580156110b0573d6000803e3d6000fd5b505050506040513d601f19601f820116820180604052508101906110d4919061333e565b811115611116576040517f08c379a000000000000000000000000000000000000000000000000000000000815260040161110d906133dd565b60405180910390fd5b600560009054906101000a900473ffffffffffffffffffffffffffffffffffffffff1673ffffffffffffffffffffffffffffffffffffffff1663a9059cbb33836040518363ffffffff1660e01b8152600401611173929190612f95565b6020604051808303816000875af1158015611192573d6000803e3d6000fd5b505050506040513d601f19601f820116820180604052508101906111b69190612ff6565b6111f5576040517f08c379a00000000000000000000000000000000000000000000000000000000081526004016111ec9061306f565b60405180910390fd5b34600160003373ffffffffffffffffffffffffffffffffffffffff1673ffffffffffffffffffffffffffffffffffffffff168152602001908152602001600020600082825461124491906133fd565b9250508190555050565b6000611261848484426000336000611d55565b90506040518060e00160405280858152602001848152602001838152602001428152602001600081526020013373ffffffffffffffffffffffffffffffffffffffff168152602001600073ffffffffffffffffffffffffffffffffffffffff168152506002600083815260200190815260200160002060008201518160000190816112ec91906135d3565b50602082015181600101908161130291906135d3565b5060408201518160020155606082015181600301556080820151816004015560a08201518160050160006101000a81548173ffffffffffffffffffffffffffffffffffffffff021916908373ffffffffffffffffffffffffffffffffffffffff16021790555060c08201518160060160006101000a81548173ffffffffffffffffffffffffffffffffffffffff021916908373ffffffffffffffffffffffffffffffffffffffff160217905550905050803373ffffffffffffffffffffffffffffffffffffffff167ff1335015f0ef5335bcd37297f3c07f4453c4705aa6a3a49737b523edea806b0060405160405180910390a350505050565b600560009054906101000a900473ffffffffffffffffffffffffffffffffffffffff1681565b60085481565b60016020528060005260406000206000915090505481565b60008054906101000a900473ffffffffffffffffffffffffffffffffffffffff1681565b6000600754905090565b6000611479826108a4565b905060006007548261148b91906136a5565b9050808261149991906136e7565b915080600860008282546114ad91906133fd565b9250508190555082600560009054906101000a900473ffffffffffffffffffffffffffffffffffffffff1673ffffffffffffffffffffffffffffffffffffffff1663dd62ed3e33306040518363ffffffff1660e01b815260040161151292919061371b565b602060405180830381865afa15801561152f573d6000803e3d6000fd5b505050506040513d601f19601f82011682018060405250810190611553919061333e565b1015611594576040517f08c379a000000000000000000000000000000000000000000000000000000000815260040161158b90613790565b60405180910390fd5b814710156115d7576040517f08c379a00000000000000000000000000000000000000000000000000000000081526004016115ce90613822565b60405180910390fd5b600560009054906101000a900473ffffffffffffffffffffffffffffffffffffffff1673ffffffffffffffffffffffffffffffffffffffff166323b872dd3330866040518463ffffffff1660e01b815260040161163693929190613842565b6020604051808303816000875af1158015611655573d6000803e3d6000fd5b505050506040513d601f19601f820116820180604052508101906116799190612ff6565b6116b8576040517f08c379a00000000000000000000000000000000000000000000000000000000081526004016116af906138c5565b60405180910390fd5b60003373ffffffffffffffffffffffffffffffffffffffff16836040516116de90613916565b60006040518083038185875af1925050503d806000811461171b576040519150601f19603f3d011682016040523d82523d6000602084013e611720565b606091505b5050905080611764576040517f08c379a000000000000000000000000000000000000000000000000000000000815260040161175b90613977565b60405180910390fd5b82600160003373ffffffffffffffffffffffffffffffffffffffff1673ffffffffffffffffffffffffffffffffffffffff16815260200190815260200160002060008282546117b391906136e7565b9250508190555050505050565b6000600260008381526020019081526020016000206003015414611819576040517f08c379a000000000000000000000000000000000000000000000000000000000815260040161181090612e0b565b60405180910390fd5b3373ffffffffffffffffffffffffffffffffffffffff166002600083815260200190815260200160002060060160009054906101000a900473ffffffffffffffffffffffffffffffffffffffff1673ffffffffffffffffffffffffffffffffffffffff16146118bd576040517f08c379a00000000000000000000000000000000000000000000000000000000081526004016118b49061316a565b60405180910390fd5b600015156003600083815260200190815260200160002060009054906101000a900460ff16151514611924576040517f08c379a000000000000000000000000000000000000000000000000000000000815260040161191b906131fc565b60405180910390fd5b61192d81611d97565b50565b60075481565b6000611940610547565b8261194b91906136a5565b9050919050565b6000806002600084815260200190815260200160002060030154146119ac576040517f08c379a00000000000000000000000000000000000000000000000000000000081526004016119a390612e0b565b60405180910390fd5b6002600083815260200190815260200160002060020154600560009054906101000a900473ffffffffffffffffffffffffffffffffffffffff1673ffffffffffffffffffffffffffffffffffffffff1663dd62ed3e33306040518363ffffffff1660e01b8152600401611a2092919061371b565b602060405180830381865afa158015611a3d573d6000803e3d6000fd5b505050506040513d601f19601f82011682018060405250810190611a61919061333e565b1015611aa2576040517f08c379a0000000000000000000000000000000000000000000000000000000008152600401611a9990613790565b60405180910390fd5b600560009054906101000a900473ffffffffffffffffffffffffffffffffffffffff1673ffffffffffffffffffffffffffffffffffffffff166323b872dd333060026000878152602001908152602001600020600201546040518463ffffffff1660e01b8152600401611b1793929190613842565b6020604051808303816000875af1158015611b36573d6000803e3d6000fd5b505050506040513d601f19601f82011682018060405250810190611b5a9190612ff6565b611b99576040517f08c379a0000000000000000000000000000000000000000000000000000000008152600401611b90906139e3565b60405180910390fd5b6000611ba68333426121d4565b905080915050919050565b60008054906101000a900473ffffffffffffffffffffffffffffffffffffffff1673ffffffffffffffffffffffffffffffffffffffff163373ffffffffffffffffffffffffffffffffffffffff1614611c3f576040517f08c379a0000000000000000000000000000000000000000000000000000000008152600401611c3690612d9f565b60405180910390fd5b600854811115611c84576040517f08c379a0000000000000000000000000000000000000000000000000000000008152600401611c7b90613a4f565b60405180910390fd5b60008060009054906101000a900473ffffffffffffffffffffffffffffffffffffffff1673ffffffffffffffffffffffffffffffffffffffff1682604051611ccb90613916565b60006040518083038185875af1925050503d8060008114611d08576040519150601f19603f3d011682016040523d82523d6000602084013e611d0d565b606091505b5050905080611d51576040517f08c379a0000000000000000000000000000000000000000000000000000000008152600401611d4890613977565b60405180910390fd5b5050565b600087878787878787604051602001611d7497969594939291906129dd565b604051602081830303815290604052805190602001209050979650505050505050565b6000600260008381526020019081526020016000206040518060e0016040529081600082018054611dc79061324b565b80601f0160208091040260200160405190810160405280929190818152602001828054611df39061324b565b8015611e405780601f10611e1557610100808354040283529160200191611e40565b820191906000526020600020905b815481529060010190602001808311611e2357829003601f168201915b50505050508152602001600182018054611e599061324b565b80601f0160208091040260200160405190810160405280929190818152602001828054611e859061324b565b8015611ed25780601f10611ea757610100808354040283529160200191611ed2565b820191906000526020600020905b815481529060010190602001808311611eb557829003601f168201915b505050505081526020016002820154815260200160038201548152602001600482015481526020016005820160009054906101000a900473ffffffffffffffffffffffffffffffffffffffff1673ffffffffffffffffffffffffffffffffffffffff1673ffffffffffffffffffffffffffffffffffffffff1681526020016006820160009054906101000a900473ffffffffffffffffffffffffffffffffffffffff1673ffffffffffffffffffffffffffffffffffffffff1673ffffffffffffffffffffffffffffffffffffffff168152505090506000611fce826000015183602001518460400151856060015160008760a001516000611d55565b90506040518060e0016040528083600001518152602001836020015181526020018360400151815260200183606001518152602001600081526020018360a0015173ffffffffffffffffffffffffffffffffffffffff168152602001600073ffffffffffffffffffffffffffffffffffffffff1681525060026000838152602001908152602001600020600082015181600001908161206d91906135d3565b50602082015181600101908161208391906135d3565b5060408201518160020155606082015181600301556080820151816004015560a08201518160050160006101000a81548173ffffffffffffffffffffffffffffffffffffffff021916908373ffffffffffffffffffffffffffffffffffffffff16021790555060c08201518160060160006101000a81548173ffffffffffffffffffffffffffffffffffffffff021916908373ffffffffffffffffffffffffffffffffffffffff1602179055509050506002600084815260200190815260200160002060008082016000612157919061267e565b600182016000612167919061267e565b6002820160009055600382016000905560048201600090556005820160006101000a81549073ffffffffffffffffffffffffffffffffffffffff02191690556006820160006101000a81549073ffffffffffffffffffffffffffffffffffffffff02191690555050505050565b600080600260008681526020019081526020016000206040518060e00160405290816000820180546122059061324b565b80601f01602080910402602001604051908101604052809291908181526020018280546122319061324b565b801561227e5780601f106122535761010080835404028352916020019161227e565b820191906000526020600020905b81548152906001019060200180831161226157829003601f168201915b505050505081526020016001820180546122979061324b565b80601f01602080910402602001604051908101604052809291908181526020018280546122c39061324b565b80156123105780601f106122e557610100808354040283529160200191612310565b820191906000526020600020905b8154815290600101906020018083116122f357829003601f168201915b505050505081526020016002820154815260200160038201548152602001600482015481526020016005820160009054906101000a900473ffffffffffffffffffffffffffffffffffffffff1673ffffffffffffffffffffffffffffffffffffffff1673ffffffffffffffffffffffffffffffffffffffff1681526020016006820160009054906101000a900473ffffffffffffffffffffffffffffffffffffffff1673ffffffffffffffffffffffffffffffffffffffff1673ffffffffffffffffffffffffffffffffffffffff16815250509050600061240a8260000151836020015184604001518560600151888760a001518b611d55565b90506040518060e00160405280836000015181526020018360200151815260200183604001518152602001836060015181526020018581526020018360a0015173ffffffffffffffffffffffffffffffffffffffff1681526020018673ffffffffffffffffffffffffffffffffffffffff168152506002600083815260200190815260200160002060008201518160000190816124a791906135d3565b5060208201518160010190816124bd91906135d3565b5060408201518160020155606082015181600301556080820151816004015560a08201518160050160006101000a81548173ffffffffffffffffffffffffffffffffffffffff021916908373ffffffffffffffffffffffffffffffffffffffff16021790555060c08201518160060160006101000a81548173ffffffffffffffffffffffffffffffffffffffff021916908373ffffffffffffffffffffffffffffffffffffffff1602179055509050506002600087815260200190815260200160002060008082016000612591919061267e565b6001820160006125a1919061267e565b6002820160009055600382016000905560048201600090556005820160006101000a81549073ffffffffffffffffffffffffffffffffffffffff02191690556006820160006101000a81549073ffffffffffffffffffffffffffffffffffffffff0219169055505080925050509392505050565b6040518060e001604052806060815260200160608152602001600081526020016000815260200160008152602001600073ffffffffffffffffffffffffffffffffffffffff168152602001600073ffffffffffffffffffffffffffffffffffffffff1681525090565b50805461268a9061324b565b6000825580601f1061269c57506126bb565b601f0160209004906000526020600020908101906126ba91906126be565b5b50565b5b808211156126d75760008160009055506001016126bf565b5090565b6000819050919050565b6126ee816126db565b82525050565b600060208201905061270960008301846126e5565b92915050565b6000604051905090565b600080fd5b600080fd5b61272c816126db565b811461273757600080fd5b50565b60008135905061274981612723565b92915050565b60006020828403121561276557612764612719565b5b60006127738482850161273a565b91505092915050565b6000819050919050565b61278f8161277c565b811461279a57600080fd5b50565b6000813590506127ac81612786565b92915050565b6000602082840312156127c8576127c7612719565b5b60006127d68482850161279d565b91505092915050565b600081519050919050565b600082825260208201905092915050565b60005b838110156128195780820151818401526020810190506127fe565b60008484015250505050565b6000601f19601f8301169050919050565b6000612841826127df565b61284b81856127ea565b935061285b8185602086016127fb565b61286481612825565b840191505092915050565b612878816126db565b82525050565b600073ffffffffffffffffffffffffffffffffffffffff82169050919050565b60006128a98261287e565b9050919050565b6128b98161289e565b82525050565b600060e08301600083015184820360008601526128dc8282612836565b915050602083015184820360208601526128f68282612836565b915050604083015161290b604086018261286f565b50606083015161291e606086018261286f565b506080830151612931608086018261286f565b5060a083015161294460a08601826128b0565b5060c083015161295760c08601826128b0565b508091505092915050565b6000602082019050818103600083015261297c81846128bf565b905092915050565b600082825260208201905092915050565b60006129a0826127df565b6129aa8185612984565b93506129ba8185602086016127fb565b6129c381612825565b840191505092915050565b6129d78161289e565b82525050565b600060e08201905081810360008301526129f7818a612995565b90508181036020830152612a0b8189612995565b9050612a1a60408301886126e5565b612a2760608301876126e5565b612a3460808301866126e5565b612a4160a08301856129ce565b612a4e60c08301846129ce565b98975050505050505050565b600080fd5b600080fd5b7f4e487b7100000000000000000000000000000000000000000000000000000000600052604160045260246000fd5b612a9c82612825565b810181811067ffffffffffffffff82111715612abb57612aba612a64565b5b80604052505050565b6000612ace61270f565b9050612ada8282612a93565b919050565b600067ffffffffffffffff821115612afa57612af9612a64565b5b612b0382612825565b9050602081019050919050565b82818337600083830152505050565b6000612b32612b2d84612adf565b612ac4565b905082815260208101848484011115612b4e57612b4d612a5f565b5b612b59848285612b10565b509392505050565b600082601f830112612b7657612b75612a5a565b5b8135612b86848260208601612b1f565b91505092915050565b600080600060608486031215612ba857612ba7612719565b5b600084013567ffffffffffffffff811115612bc657612bc561271e565b5b612bd286828701612b61565b935050602084013567ffffffffffffffff811115612bf357612bf261271e565b5b612bff86828701612b61565b9250506040612c108682870161273a565b9150509250925092565b6000819050919050565b6000612c3f612c3a612c358461287e565b612c1a565b61287e565b9050919050565b6000612c5182612c24565b9050919050565b6000612c6382612c46565b9050919050565b612c7381612c58565b82525050565b6000602082019050612c8e6000830184612c6a565b92915050565b612c9d8161289e565b8114612ca857600080fd5b50565b600081359050612cba81612c94565b92915050565b600060208284031215612cd657612cd5612719565b5b6000612ce484828501612cab565b91505092915050565b6000612cf88261287e565b9050919050565b612d0881612ced565b82525050565b6000602082019050612d236000830184612cff565b92915050565b612d328161277c565b82525050565b6000602082019050612d4d6000830184612d29565b92915050565b7f4e6f74206f776e65720000000000000000000000000000000000000000000000600082015250565b6000612d89600983612984565b9150612d9482612d53565b602082019050919050565b60006020820190508181036000830152612db881612d7c565b9050919050565b7f4974656d20646f65736e27742065786973740000000000000000000000000000600082015250565b6000612df5601283612984565b9150612e0082612dbf565b602082019050919050565b60006020820190508181036000830152612e2481612de8565b9050919050565b7f596f7520617265206e6f742073656c6c65720000000000000000000000000000600082015250565b6000612e61601283612984565b9150612e6c82612e2b565b602082019050919050565b60006020820190508181036000830152612e9081612e54565b9050919050565b7f53656c6c696e67206973206e6f7420636f6e6669726d6564206279206275796560008201527f7200000000000000000000000000000000000000000000000000000000000000602082015250565b6000612ef3602183612984565b9150612efe82612e97565b604082019050919050565b60006020820190508181036000830152612f2281612ee6565b9050919050565b7f436f6e6669726d2073656c6c696e672066697273740000000000000000000000600082015250565b6000612f5f601583612984565b9150612f6a82612f29565b602082019050919050565b60006020820190508181036000830152612f8e81612f52565b9050919050565b6000604082019050612faa60008301856129ce565b612fb760208301846126e5565b9392505050565b60008115159050919050565b612fd381612fbe565b8114612fde57600080fd5b50565b600081519050612ff081612fca565b92915050565b60006020828403121561300c5761300b612719565b5b600061301a84828501612fe1565b91505092915050565b7f4d4e54207472616e73666572206572726f720000000000000000000000000000600082015250565b6000613059601283612984565b915061306482613023565b602082019050919050565b600060208201905081810360008301526130888161304c565b9050919050565b7f4e487b7100000000000000000000000000000000000000000000000000000000600052601260045260246000fd5b7f4e487b7100000000000000000000000000000000000000000000000000000000600052601160045260246000fd5b60006130f8826126db565b9150613103836126db565b9250826131135761311261308f565b5b828204905092915050565b7f596f7520617265206e6f74206275796572000000000000000000000000000000600082015250565b6000613154601183612984565b915061315f8261311e565b602082019050919050565b6000602082019050818103600083015261318381613147565b9050919050565b7f4974656d2069736e27742077616974696e6720636f6e6669726d6174696f6e2060008201527f66726f6d20627579657200000000000000000000000000000000000000000000602082015250565b60006131e6602a83612984565b91506131f18261318a565b604082019050919050565b60006020820190508181036000830152613215816131d9565b9050919050565b7f4e487b7100000000000000000000000000000000000000000000000000000000600052602260045260246000fd5b6000600282049050600182168061326357607f821691505b6020821081036132765761327561321c565b5b50919050565b7f4974656d2069736e27742077616974696e6720636f6e6669726d6174696f6e2060008201527f66726f6d2073656c6c6572000000000000000000000000000000000000000000602082015250565b60006132d8602b83612984565b91506132e38261327c565b604082019050919050565b60006020820190508181036000830152613307816132cb565b9050919050565b600060208201905061332360008301846129ce565b92915050565b60008151905061333881612723565b92915050565b60006020828403121561335457613353612719565b5b600061336284828501613329565b91505092915050565b7f496e73756666696369656e7420616d6f756e74206f66204d4e54206f6e20746860008201527f6520636f6e747261637421000000000000000000000000000000000000000000602082015250565b60006133c7602b83612984565b91506133d28261336b565b604082019050919050565b600060208201905081810360008301526133f6816133ba565b9050919050565b6000613408826126db565b9150613413836126db565b925082820190508082111561342b5761342a6130be565b5b92915050565b60008190508160005260206000209050919050565b60006020601f8301049050919050565b600082821b905092915050565b6000600883026134937fffffffffffffffffffffffffffffffffffffffffffffffffffffffffffffffff82613456565b61349d8683613456565b95508019841693508086168417925050509392505050565b60006134d06134cb6134c6846126db565b612c1a565b6126db565b9050919050565b6000819050919050565b6134ea836134b5565b6134fe6134f6826134d7565b848454613463565b825550505050565b600090565b613513613506565b61351e8184846134e1565b505050565b5b818110156135425761353760008261350b565b600181019050613524565b5050565b601f8211156135875761355881613431565b61356184613446565b81016020851015613570578190505b61358461357c85613446565b830182613523565b50505b505050565b600082821c905092915050565b60006135aa6000198460080261358c565b1980831691505092915050565b60006135c38383613599565b9150826002028217905092915050565b6135dc826127df565b67ffffffffffffffff8111156135f5576135f4612a64565b5b6135ff825461324b565b61360a828285613546565b600060209050601f83116001811461363d576000841561362b578287015190505b61363585826135b7565b86555061369d565b601f19841661364b86613431565b60005b828110156136735784890151825560018201915060208501945060208101905061364e565b86831015613690578489015161368c601f891682613599565b8355505b6001600288020188555050505b505050505050565b60006136b0826126db565b91506136bb836126db565b92508282026136c9816126db565b915082820484148315176136e0576136df6130be565b5b5092915050565b60006136f2826126db565b91506136fd836126db565b9250828203905081811115613715576137146130be565b5b92915050565b600060408201905061373060008301856129ce565b61373d60208301846129ce565b9392505050565b7f496e73756666696369656e7420636f6e747261637420616c6c6f77616e636500600082015250565b600061377a601f83612984565b915061378582613744565b602082019050919050565b600060208201905081810360008301526137a98161376d565b9050919050565b7f496e73756666696369656e7420616d6f756e74206f6620455448206f6e20746860008201527f6520636f6e747261637421000000000000000000000000000000000000000000602082015250565b600061380c602b83612984565b9150613817826137b0565b604082019050919050565b6000602082019050818103600083015261383b816137ff565b9050919050565b600060608201905061385760008301866129ce565b61386460208301856129ce565b61387160408301846126e5565b949350505050565b7f4d4e54207472616e73666572206572726f722100000000000000000000000000600082015250565b60006138af601383612984565b91506138ba82613879565b602082019050919050565b600060208201905081810360008301526138de816138a2565b9050919050565b600081905092915050565b50565b60006139006000836138e5565b915061390b826138f0565b600082019050919050565b6000613921826138f3565b9150819050919050565b7f455448207472616e73666572206572726f722100000000000000000000000000600082015250565b6000613961601383612984565b915061396c8261392b565b602082019050919050565b6000602082019050818103600083015261399081613954565b9050919050565b7f546f6b656e207472616e7366657220746f20636f6e7472616374206572726f72600082015250565b60006139cd602083612984565b91506139d882613997565b602082019050919050565b600060208201905081810360008301526139fc816139c0565b9050919050565b7f4e6f7420656e6f75676820657468657220746f207472616e7366657200000000600082015250565b6000613a39601c83612984565b9150613a4482613a03565b602082019050919050565b60006020820190508181036000830152613a6881613a2c565b905091905056fea2646970667358221220ddd48d12d0f2ea052f6e3d0a28e38e033db062d7e19e7a5c2d68d3ac343a303164736f6c6343000811003360806040523480156200001157600080fd5b5060405162001d3d38038062001d3d833981810160405281019062000037919062000427565b818381600390816200004a91906200070c565b5080600490816200005c91906200070c565b505050600062000071620000af60201b60201c565b60ff16600a62000082919062000976565b6103e8620000919190620009c7565b9050620000a58282620000b860201b60201c565b5050505062000afe565b60006012905090565b600073ffffffffffffffffffffffffffffffffffffffff168273ffffffffffffffffffffffffffffffffffffffff16036200012a576040517f08c379a0000000000000000000000000000000000000000000000000000000008152600401620001219062000a73565b60405180910390fd5b6200013e600083836200022560201b60201c565b806002600082825462000152919062000a95565b92505081905550806000808473ffffffffffffffffffffffffffffffffffffffff1673ffffffffffffffffffffffffffffffffffffffff168152602001908152602001600020600082825401925050819055508173ffffffffffffffffffffffffffffffffffffffff16600073ffffffffffffffffffffffffffffffffffffffff167fddf252ad1be2c89b69c2b068fc378daa952ba7f163c4a11628f55a4df523b3ef8360405162000205919062000ae1565b60405180910390a362000221600083836200022a60201b60201c565b5050565b505050565b505050565b6000604051905090565b600080fd5b600080fd5b600080fd5b600080fd5b6000601f19601f8301169050919050565b7f4e487b7100000000000000000000000000000000000000000000000000000000600052604160045260246000fd5b62000298826200024d565b810181811067ffffffffffffffff82111715620002ba57620002b96200025e565b5b80604052505050565b6000620002cf6200022f565b9050620002dd82826200028d565b919050565b600067ffffffffffffffff8211156200030057620002ff6200025e565b5b6200030b826200024d565b9050602081019050919050565b60005b83811015620003385780820151818401526020810190506200031b565b60008484015250505050565b60006200035b6200035584620002e2565b620002c3565b9050828152602081018484840111156200037a576200037962000248565b5b6200038784828562000318565b509392505050565b600082601f830112620003a757620003a662000243565b5b8151620003b984826020860162000344565b91505092915050565b600073ffffffffffffffffffffffffffffffffffffffff82169050919050565b6000620003ef82620003c2565b9050919050565b6200040181620003e2565b81146200040d57600080fd5b50565b6000815190506200042181620003f6565b92915050565b60008060006060848603121562000443576200044262000239565b5b600084015167ffffffffffffffff8111156200046457620004636200023e565b5b62000472868287016200038f565b935050602084015167ffffffffffffffff8111156200049657620004956200023e565b5b620004a4868287016200038f565b9250506040620004b78682870162000410565b9150509250925092565b600081519050919050565b7f4e487b7100000000000000000000000000000000000000000000000000000000600052602260045260246000fd5b600060028204905060018216806200051457607f821691505b6020821081036200052a5762000529620004cc565b5b50919050565b60008190508160005260206000209050919050565b60006020601f8301049050919050565b600082821b905092915050565b600060088302620005947fffffffffffffffffffffffffffffffffffffffffffffffffffffffffffffffff8262000555565b620005a0868362000555565b95508019841693508086168417925050509392505050565b6000819050919050565b6000819050919050565b6000620005ed620005e7620005e184620005b8565b620005c2565b620005b8565b9050919050565b6000819050919050565b6200060983620005cc565b620006216200061882620005f4565b84845462000562565b825550505050565b600090565b6200063862000629565b62000645818484620005fe565b505050565b5b818110156200066d57620006616000826200062e565b6001810190506200064b565b5050565b601f821115620006bc57620006868162000530565b620006918462000545565b81016020851015620006a1578190505b620006b9620006b08562000545565b8301826200064a565b50505b505050565b600082821c905092915050565b6000620006e160001984600802620006c1565b1980831691505092915050565b6000620006fc8383620006ce565b9150826002028217905092915050565b6200071782620004c1565b67ffffffffffffffff8111156200073357620007326200025e565b5b6200073f8254620004fb565b6200074c82828562000671565b600060209050601f8311600181146200078457600084156200076f578287015190505b6200077b8582620006ee565b865550620007eb565b601f198416620007948662000530565b60005b82811015620007be5784890151825560018201915060208501945060208101905062000797565b86831015620007de5784890151620007da601f891682620006ce565b8355505b6001600288020188555050505b505050505050565b7f4e487b7100000000000000000000000000000000000000000000000000000000600052601160045260246000fd5b60008160011c9050919050565b6000808291508390505b60018511156200088157808604811115620008595762000858620007f3565b5b6001851615620008695780820291505b8081029050620008798562000822565b945062000839565b94509492505050565b6000826200089c57600190506200096f565b81620008ac57600090506200096f565b8160018114620008c55760028114620008d05762000906565b60019150506200096f565b60ff841115620008e557620008e4620007f3565b5b8360020a915084821115620008ff57620008fe620007f3565b5b506200096f565b5060208310610133831016604e8410600b8410161715620009405782820a9050838111156200093a5762000939620007f3565b5b6200096f565b6200094f84848460016200082f565b92509050818404811115620009695762000968620007f3565b5b81810290505b9392505050565b60006200098382620005b8565b91506200099083620005b8565b9250620009bf7fffffffffffffffffffffffffffffffffffffffffffffffffffffffffffffffff84846200088a565b905092915050565b6000620009d482620005b8565b9150620009e183620005b8565b9250828202620009f181620005b8565b9150828204841483151762000a0b5762000a0a620007f3565b5b5092915050565b600082825260208201905092915050565b7f45524332303a206d696e7420746f20746865207a65726f206164647265737300600082015250565b600062000a5b601f8362000a12565b915062000a688262000a23565b602082019050919050565b6000602082019050818103600083015262000a8e8162000a4c565b9050919050565b600062000aa282620005b8565b915062000aaf83620005b8565b925082820190508082111562000aca5762000ac9620007f3565b5b92915050565b62000adb81620005b8565b82525050565b600060208201905062000af8600083018462000ad0565b92915050565b61122f8062000b0e6000396000f3fe608060405234801561001057600080fd5b50600436106100a95760003560e01c80633950935111610071578063395093511461016857806370a082311461019857806395d89b41146101c8578063a457c2d7146101e6578063a9059cbb14610216578063dd62ed3e14610246576100a9565b806306fdde03146100ae578063095ea7b3146100cc57806318160ddd146100fc57806323b872dd1461011a578063313ce5671461014a575b600080fd5b6100b6610276565b6040516100c39190610b0c565b60405180910390f35b6100e660048036038101906100e19190610bc7565b610308565b6040516100f39190610c22565b60405180910390f35b61010461032b565b6040516101119190610c4c565b60405180910390f35b610134600480360381019061012f9190610c67565b610335565b6040516101419190610c22565b60405180910390f35b610152610364565b60405161015f9190610cd6565b60405180910390f35b610182600480360381019061017d9190610bc7565b61036d565b60405161018f9190610c22565b60405180910390f35b6101b260048036038101906101ad9190610cf1565b6103a4565b6040516101bf9190610c4c565b60405180910390f35b6101d06103ec565b6040516101dd9190610b0c565b60405180910390f35b61020060048036038101906101fb9190610bc7565b61047e565b60405161020d9190610c22565b60405180910390f35b610230600480360381019061022b9190610bc7565b6104f5565b60405161023d9190610c22565b60405180910390f35b610260600480360381019061025b9190610d1e565b610518565b60405161026d9190610c4c565b60405180910390f35b60606003805461028590610d8d565b80601f01602080910402602001604051908101604052809291908181526020018280546102b190610d8d565b80156102fe5780601f106102d3576101008083540402835291602001916102fe565b820191906000526020600020905b8154815290600101906020018083116102e157829003601f168201915b5050505050905090565b60008061031361059f565b90506103208185856105a7565b600191505092915050565b6000600254905090565b60008061034061059f565b905061034d858285610770565b6103588585856107fc565b60019150509392505050565b60006012905090565b60008061037861059f565b905061039981858561038a8589610518565b6103949190610ded565b6105a7565b600191505092915050565b60008060008373ffffffffffffffffffffffffffffffffffffffff1673ffffffffffffffffffffffffffffffffffffffff168152602001908152602001600020549050919050565b6060600480546103fb90610d8d565b80601f016020809104026020016040519081016040528092919081815260200182805461042790610d8d565b80156104745780601f1061044957610100808354040283529160200191610474565b820191906000526020600020905b81548152906001019060200180831161045757829003601f168201915b5050505050905090565b60008061048961059f565b905060006104978286610518565b9050838110156104dc576040517f08c379a00000000000000000000000000000000000000000000000000000000081526004016104d390610e93565b60405180910390fd5b6104e982868684036105a7565b60019250505092915050565b60008061050061059f565b905061050d8185856107fc565b600191505092915050565b6000600160008473ffffffffffffffffffffffffffffffffffffffff1673ffffffffffffffffffffffffffffffffffffffff16815260200190815260200160002060008373ffffffffffffffffffffffffffffffffffffffff1673ffffffffffffffffffffffffffffffffffffffff16815260200190815260200160002054905092915050565b600033905090565b600073ffffffffffffffffffffffffffffffffffffffff168373ffffffffffffffffffffffffffffffffffffffff1603610616576040517f08c379a000000000000000000000000000000000000000000000000000000000815260040161060d90610f25565b60405180910390fd5b600073ffffffffffffffffffffffffffffffffffffffff168273ffffffffffffffffffffffffffffffffffffffff1603610685576040517f08c379a000000000000000000000000000000000000000000000000000000000815260040161067c90610fb7565b60405180910390fd5b80600160008573ffffffffffffffffffffffffffffffffffffffff1673ffffffffffffffffffffffffffffffffffffffff16815260200190815260200160002060008473ffffffffffffffffffffffffffffffffffffffff1673ffffffffffffffffffffffffffffffffffffffff168152602001908152602001600020819055508173ffffffffffffffffffffffffffffffffffffffff168373ffffffffffffffffffffffffffffffffffffffff167f8c5be1e5ebec7d5bd14f71427d1e84f3dd0314c0f7b2291e5b200ac8c7c3b925836040516107639190610c4c565b60405180910390a3505050565b600061077c8484610518565b90507fffffffffffffffffffffffffffffffffffffffffffffffffffffffffffffffff81146107f657818110156107e8576040517f08c379a00000000000000000000000000000000000000000000000000000000081526004016107df90611023565b60405180910390fd5b6107f584848484036105a7565b5b50505050565b600073ffffffffffffffffffffffffffffffffffffffff168373ffffffffffffffffffffffffffffffffffffffff160361086b576040517f08c379a0000000000000000000000000000000000000000000000000000000008152600401610862906110b5565b60405180910390fd5b600073ffffffffffffffffffffffffffffffffffffffff168273ffffffffffffffffffffffffffffffffffffffff16036108da576040517f08c379a00000000000000000000000000000000000000000000000000000000081526004016108d190611147565b60405180910390fd5b6108e5838383610a72565b60008060008573ffffffffffffffffffffffffffffffffffffffff1673ffffffffffffffffffffffffffffffffffffffff1681526020019081526020016000205490508181101561096b576040517f08c379a0000000000000000000000000000000000000000000000000000000008152600401610962906111d9565b60405180910390fd5b8181036000808673ffffffffffffffffffffffffffffffffffffffff1673ffffffffffffffffffffffffffffffffffffffff16815260200190815260200160002081905550816000808573ffffffffffffffffffffffffffffffffffffffff1673ffffffffffffffffffffffffffffffffffffffff168152602001908152602001600020600082825401925050819055508273ffffffffffffffffffffffffffffffffffffffff168473ffffffffffffffffffffffffffffffffffffffff167fddf252ad1be2c89b69c2b068fc378daa952ba7f163c4a11628f55a4df523b3ef84604051610a599190610c4c565b60405180910390a3610a6c848484610a77565b50505050565b505050565b505050565b600081519050919050565b600082825260208201905092915050565b60005b83811015610ab6578082015181840152602081019050610a9b565b60008484015250505050565b6000601f19601f8301169050919050565b6000610ade82610a7c565b610ae88185610a87565b9350610af8818560208601610a98565b610b0181610ac2565b840191505092915050565b60006020820190508181036000830152610b268184610ad3565b905092915050565b600080fd5b600073ffffffffffffffffffffffffffffffffffffffff82169050919050565b6000610b5e82610b33565b9050919050565b610b6e81610b53565b8114610b7957600080fd5b50565b600081359050610b8b81610b65565b92915050565b6000819050919050565b610ba481610b91565b8114610baf57600080fd5b50565b600081359050610bc181610b9b565b92915050565b60008060408385031215610bde57610bdd610b2e565b5b6000610bec85828601610b7c565b9250506020610bfd85828601610bb2565b9150509250929050565b60008115159050919050565b610c1c81610c07565b82525050565b6000602082019050610c376000830184610c13565b92915050565b610c4681610b91565b82525050565b6000602082019050610c616000830184610c3d565b92915050565b600080600060608486031215610c8057610c7f610b2e565b5b6000610c8e86828701610b7c565b9350506020610c9f86828701610b7c565b9250506040610cb086828701610bb2565b9150509250925092565b600060ff82169050919050565b610cd081610cba565b82525050565b6000602082019050610ceb6000830184610cc7565b92915050565b600060208284031215610d0757610d06610b2e565b5b6000610d1584828501610b7c565b91505092915050565b60008060408385031215610d3557610d34610b2e565b5b6000610d4385828601610b7c565b9250506020610d5485828601610b7c565b9150509250929050565b7f4e487b7100000000000000000000000000000000000000000000000000000000600052602260045260246000fd5b60006002820490506001821680610da557607f821691505b602082108103610db857610db7610d5e565b5b50919050565b7f4e487b7100000000000000000000000000000000000000000000000000000000600052601160045260246000fd5b6000610df882610b91565b9150610e0383610b91565b9250828201905080821115610e1b57610e1a610dbe565b5b92915050565b7f45524332303a2064656372656173656420616c6c6f77616e63652062656c6f7760008201527f207a65726f000000000000000000000000000000000000000000000000000000602082015250565b6000610e7d602583610a87565b9150610e8882610e21565b604082019050919050565b60006020820190508181036000830152610eac81610e70565b9050919050565b7f45524332303a20617070726f76652066726f6d20746865207a65726f2061646460008201527f7265737300000000000000000000000000000000000000000000000000000000602082015250565b6000610f0f602483610a87565b9150610f1a82610eb3565b604082019050919050565b60006020820190508181036000830152610f3e81610f02565b9050919050565b7f45524332303a20617070726f766520746f20746865207a65726f20616464726560008201527f7373000000000000000000000000000000000000000000000000000000000000602082015250565b6000610fa1602283610a87565b9150610fac82610f45565b604082019050919050565b60006020820190508181036000830152610fd081610f94565b9050919050565b7f45524332303a20696e73756666696369656e7420616c6c6f77616e6365000000600082015250565b600061100d601d83610a87565b915061101882610fd7565b602082019050919050565b6000602082019050818103600083015261103c81611000565b9050919050565b7f45524332303a207472616e736665722066726f6d20746865207a65726f20616460008201527f6472657373000000000000000000000000000000000000000000000000000000602082015250565b600061109f602583610a87565b91506110aa82611043565b604082019050919050565b600060208201905081810360008301526110ce81611092565b9050919050565b7f45524332303a207472616e7366657220746f20746865207a65726f206164647260008201527f6573730000000000000000000000000000000000000000000000000000000000602082015250565b6000611131602383610a87565b915061113c826110d5565b604082019050919050565b6000602082019050818103600083015261116081611124565b9050919050565b7f45524332303a207472616e7366657220616d6f756e742065786365656473206260008201527f616c616e63650000000000000000000000000000000000000000000000000000602082015250565b60006111c3602683610a87565b91506111ce82611167565b604082019050919050565b600060208201905081810360008301526111f2816111b6565b905091905056fea2646970667358221220a22ffb96f252c2e30c29b74f1484b176a9f6aab09af6192d2446aaa18d740aab64736f6c63430008110033",
  "linkReferences": {},
  "deployedLinkReferences": {}
}